:020000040800F2
:10000000E0080020A5010008C7160008A116000896
:10001000C516000883060008C71B00080000000082
:10002000000000000000000000000000C7190008E8
:100030008506000800000000C5190008C91900085D
:10004000BF010008BF010008BF010008BF01000890
:10005000BF010008BF010008BF010008BF01000880
:10006000BF010008BF010008BF010008BF01000870
:10007000BF010008BF010008BF010008BF01000860
:10008000BF010008BF010008BF010008BF01000850
:10009000BF010008BF010008BF010008BF01000840
:1000A000BF010008BF010008BF010008BF01000830
:1000B000BF010008BF010008BF010008BF01000820
:1000C000BF010008BF010008BF010008BF01000810
:1000D000BF010008BF010008BF010008BF01000800
:1000E000BF010008BF010008BF01000800F002F8CE
:1000F00000F048F80AA090E8000C82448344AAF17A
:100100000107DA4501D100F03DF8AFF2090EBAE877
:100110000F0013F0010F18BFFB1A43F0010318473B
:10012000D41C0000F41C0000103A24BF78C878C129
:10013000FAD8520724BF30C830C144BF04680C60ED
:10014000704700000023002400250026103A28BF35
:1001500078C1FBD8520728BF30C148BF0B60704739
:10016000732900F06E81002070471FB500F026FA59
:1001700004000020002101F011FE401C60601FBD42
:1001800010B510BD00F0F5F91146FFF7EEFF01F0D4
:100190002BFD00F025FA03B4FFF7F2FF03BC00F0DB
:1001A00069FA00000948804709480047FEE7FEE772
:1001B000FEE7FEE7FEE7FEE7FEE7FEE7FEE7FEE717
:1001C00004480549054A064B70470000291A0008F3
:1001D000ED000008E0020020E0080020E00400201C
:1001E000E0040020B2F120030AD5C2F1200320FA76
:1001F00002F001FA03F321FA02F140EA030070472A
:1002000021FA03F04FF00001704700000FB41CB555
:100210000C0007AA009001D02044401E074B7B44ED
:1002200069460190069800F0DAF8002C03D0694680
:10023000002000F0E7F81CBC5DF814FBED010000A5
:100240002DE9F0410E460446002020622046E16878
:10025000884730B3252805D0D4E901219047206A8A
:10026000401CF2E7E168204600278847050018D0C7
:10027000A5F14100192802D820354FF40067324615
:10028000294620462760FFF76BFF40B1012804D0C4
:10029000F61D26F007060836D8E7361DD6E72846AD
:1002A000DAE7206ABDE8F08170B50C460546012A00
:1002B00005D02878800600D5EA69002302E00123F2
:1002C00005E05B1C934202D2E05C0028F9D1A869EA
:1002D000E618C01AA861286A184428622846AFF3B5
:1002E000008004E0D5E9012114F8010B9047B442E5
:1002F000F8D32846AFF3008070BD70B5064600F015
:1003000065F80468054630460A22002100F09DF891
:100310002C6070BD30B505460B462A4613F8014BDC
:1003200012F8010B08B1A042F8D01CB1002802D08D
:100330006D1CF1E7284630BD10B5431C02E010F8F3
:10034000011B71B18107FAD14FF0013202C88C1A3A
:100350008C4314EAC211F9D0C01A0A0603D0C01E99
:1003600010BDC01A10BD0A0401D0801E10BD0902C4
:10037000FCD0401E10BD4FF0000200B5134694465D
:100380009646203922BFA0E80C50A0E80C50B1F1ED
:100390002001BFF4F7AF090728BFA0E80C5048BF01
:1003A0000CC05DF804EB890028BF40F8042B08BF9F
:1003B000704748BF20F8022B11F0804F18BF00F89B
:1003C000012B704770477047704700000048704726
:1003D0008002002001694A1C02610878704700B55C
:1003E0008FB0CDE901310021059105497944CDE96E
:1003F000031011466846FFF723FF0FB000BD000051
:10040000E5FFFFFF0A6802F8010B0A607047D1E9B7
:1004100000239A4202D2531C0B601070704710B533
:10042000436913B1AFF3008001E0FFF73DFF012006
:1004300010BD127800F124010A7000224A700122D6
:10044000EDE711684FF0FF32E9E72DE9F0479146FB
:100450000F4680460446002614F8015B2DB100F0DB
:1004600031F80068405DC007F6D12B2D02D02D2D4C
:1004700018D0641E4A463946204600F02BF827B1B2
:100480003968A14201D1C7F800804FF0020471051C
:100490000BD54042002803DDFFF798FF0460A0075A
:1004A000BDE8F08746F48066E4E70028F8DAFFF755
:1004B0008DFF04606FF00040F2E7000000487047D5
:1004C0008002002010B500F079F8001D10BD00BFBB
:1004D000CD1800002DE9F05F824615468B460027B7
:1004E0000AF10104B9460078302801D09DB113E02B
:1004F00014F8010B0127782803D0582801D045B102
:100500000AE00DB1102D07D1002714F8010B1025BA
:1005100002E0082500E00A250026B0460EE005FBB3
:10052000080005FB06F101271FFA80F801EB1046D1
:10053000B6F5803F00D3B94614F8010B294600F008
:1005400041F80028EBDABBF1000F05D00FB1641EB3
:1005500000E05446CBF80040B9F1000F06D0FFF799
:1005600035FF02210160C81EBDE8F09F48EA064041
:10057000FAE77546FFF7A2FFAE4605006946534607
:1005800020F00700854618B020B5FFF719FEBDE83A
:1005900020404FF000064FF000074FF000084FF0EA
:1005A000000B21F00701AC46ACE8C009ACE8C0097B
:1005B000ACE8C009ACE8C0098D46704700487047F8
:1005C000A00200203A2800D2303820F02002412A30
:1005D00001D3A2F13700884201D34FF0FF307047BA
:1005E00010B50446AFF300802046BDE81040FFF789
:1005F000D2BD00004FF0013C50F8042B51F8043BF1
:100600009A4221D1A2EB0C03934313EACC1317D1E6
:1006100050F8042B51F8043B9A4215D1A2EB0C037D
:10062000934313EACC130BD150F8042B51F8043B3D
:100630009A4209D1A2EB0C03934313EACC13DBD00B
:100640004FF00000704700BFD01A01BAB1FA81F133
:1006500001F0180122FA01F0CB40C1F12001DBB218
:10066000C0B2C01A2CFA01F3D11A914311EAC31196
:10067000E6D1704701491820ABBEFEE72600020014
:100680007047FEE77047000030B54FF4FA64A1B040
:10069000204600F0B1F9224633A134A000F0C8F89A
:1006A00000285ED0642000F0A7F962102EA131A0CE
:1006B00000F0BEF8642000F09FF922462AA12FA086
:1006C00000F0B6F800284CD0642000F095F92FA077
:1006D000009031A333A2802101A8FFF797FD44F6D3
:1006E000206221A101A800F0A3F838B940F6B83281
:1006F00032A134A000F09CF8002832D04FF4FA75F3
:10070000284600F079F9224617A131A000F090F8B0
:10071000C82000F071F9224613A131A000F088F83A
:1007200000281ED0C82000F067F922460EA130A094
:1007300000F07EF8C82000F05FF931A0009032A3ED
:1007400034A2802101A8FFF761FD42F2107206A1D8
:1007500001A800F06DF8002803D0284600F04CF9FD
:10076000012021B030BD00004F4B000041540D0A64
:1007700000000000415445300D0A000041542B4355
:10078000574D4F44453D310D0A000000313830339C
:1007900032303035000000007475696B7963756321
:1007A0000000000041542B43574A41503D2225731D
:1007B000222C222573220D0A0000000053544149C7
:1007C0005000000041542B43494653520D0A00008B
:1007D00041542B434950434C4F53450D0A000000F0
:1007E00041542B4349504D55583D300D0A000000EF
:1007F00041542B4349504D4F44453D310D0A0000B3
:1008000038303830000000003137322E32302E318F
:10081000302E370041542B43495053544152543DDC
:1008200022544350222C222573222C25730D0A00BA
:100830002DE9F84F214C8A460546002617462680AA
:100840004FF400711E48FFF796FD01F015F9284698
:10085000FFF772FD82B21A484FF47A73294648387E
:1008600000F0CEFE00F08AFA05464FF4FF78DFF87C
:1008700050901BE01248322301226946483800F0AC
:1008800067FE98B92088404508D89DF8002009F8EF
:100890000020401C80B2208009F8006051460848C2
:1008A000FFF738FD10B10120BDE8F88F00F066FABF
:1008B000401BB842DED30020F6E700000000002015
:1008C0005C00002006490020C8610648016941F02B
:1008D00004010161016941F04001016170470000BC
:1008E0006002002000200240064A0021D161064932
:1008F0000A6942F002020A614861086940F040005A
:10090000086170476002002000200240044B002272
:10091000DA61044A136943F00103136101807047EF
:10092000600200200020024014480022C168CB066B
:10093000134904D5CA6942F00202CA611022C36891
:100940005B0705D5CB6943F00103CB6142F004029C
:10095000C369DB0707D0CB6943F00403CB61C169EE
:1009600021F00101C161A2F58071013901D0C2609D
:100970007047C16921F00101C16170470020024048
:100980006002002070B5054600F0F8F90646114CEB
:1009900009E0681C07D025B100F0F0F9801BA842DF
:1009A00001D9032070BDE068C007F2D1E06880067D
:1009B00001D52020E060E068C00605D4E069C007EA
:1009C00002D1E068400703D5FFF7AEFF012070BDFC
:1009D000002070BD00200240064810B54FF0FF31E6
:1009E000016100220261C160C26000F007FA0020CC
:1009F00010BD00000010024070B5044600F0BEF9C2
:100A00000546601C02D004480078044400F0B6F9A2
:100A1000401BA042FAD370BD040000202DE9F0472E
:100A2000054626480F460126017E01290FD00121E7
:100A3000814601762868DFF888804CF2503402281D
:100A400008D0A2462046FFF79DFFA8B131E0022062
:100A5000BDE8F0872046FFF795FF08BB0120FFF7B0
:100A600031FF2046FFF78EFFD8F81010064621F020
:100A70000401C8F810101CE04FF0FF303860AC687B
:100A800011E02046FFF730FF5046FFF77BFFD8F814
:100A90001010060021F00201C8F8101001D03C60CF
:100AA00007E004F58064D5E9020100EB8120A04253
:100AB000E7D8002189F818103046C9E76002002005
:100AC000002002400348016941F0800101610020DB
:100AD00070470000002002402DE9F05F07461C48E7
:100AE00088460024017E15461E46012909D00121B1
:100AF000814601764CF2503A5046FFF743FF18B159
:100B000022E00220BDE8F09F012F02D0022F00D08A
:100B10000427D346DFF83CA0220128463146FFF7E0
:100B200061FB81B208EB4400FFF7F0FE5846FFF787
:100B300029FFDAF8102022F00102CAF8102018B9B3
:100B4000641CE4B2BC42E7D3002289F81820D9E73C
:100B50006002002000200240064900200A691206B7
:100B600007D5054A4A60054A4A600969090600D561
:100B7000012070470020024023016745AB89EFCD7B
:100B80002DE9F84FDFF8B8910024A9F1040B2346B2
:100B90000F2709F1040AABF1040EC9E00125A540B5
:100BA0002A40AA427DD1674ED1F804C0ACEB0608BA
:100BB000B44532D014DCBCF1030F3AD009DCBCF1EF
:100BC000000F2AD0BCF1010F1CD0BCF1020F31D1B3
:100BD0001DE0BCF1110F17D0BCF1120F2AD119E0A2
:100BE000B8F5881F19D006DCB8F5803F15D0B8F5E8
:100BF000801F1FD111E0B8F5001F0ED0B8F5041FFB
:100C000018D10AE0CB6815E0CB681B1D12E0CB6859
:100C100008330FE0CB680C330CE08B682BB1012B51
:100C20004FF0080303D0456104E0042302E00561AE
:100C300000E00023FF2A01D8064601E000F1040687
:100C40004FEA840501D9A5F12005D6F8008007FAFE
:100C500005FC28EA0C0803FA05F548EA0508C6F879
:100C600000804D68ED0062D5374DAE6946F0010653
:100C7000AE61AD6924F0030605F001050095334D22
:100C800006EB050CDCF80850A607360F07FA06F845
:100C900025EA0805DFF8B880404503D14FF0000889
:100CA00017E044E0DFF8AC80404502D14FF0010886
:100CB0000FE0DFF8A480404502D14FF0020808E0C1
:100CC000DFF89880404502D14FF0030801E04FF073
:100CD000040808FA06F848EA0508CCF808804D68C8
:100CE000D9F80060ED024D4601D5164300E0964369
:100CF0002E604D68DAF80060AD02554601D5164306
:100D000000E096432E604D68DBF80060AD035D4661
:100D100001D5164300E096432E604D68DEF8006072
:100D2000ED03754601D5164300E096432E60641C22
:100D30000D682A46E5407FF431AFBDE8F88F00002A
:100D400008040140000011100010024000000140A2
:100D500000080140000C0140001001400014014057
:100D6000C26821EA02030A4043EA02410161704776
:100D70000AB1016170470904FBE70000014880687F
:100D80007047000004000020024881680278114486
:100D90008160704704000020074810B5016841F0E9
:100DA00010010160032000F069F80F2000F006F840
:100DB00000F026F8002010BD0020024070B50D4D57
:100DC00004464FF47A712878B1FBF0F00A490968BB
:100DD000B1FBF0F000F03EFB48B9102C07D2002226
:100DE0002146501E00F02AF800206C6070BD0120E2
:100DF00070BD0000040000201000002070470000BB
:100E00000C4808B5816941F001018161816901F0F7
:100E100001010091C16941F08051C161C06900F0D8
:100E2000805000900448416821F0E06141F0007179
:100E3000416008BD0010024000000140F0B40E4BBC
:100E40001B680C46C3F30223C3F10705042D00D928
:100E50000425191D072901D2002300E0DB1E01260D
:100E600006FA05F1491E214099409E40761E164023
:100E70003143F0BC00F0A8BE0CED00E0064900F0E4
:100E8000070208684FF6FF03184040EA0220034AB1
:100E900010430860704700000CED00E00000FA0508
:100EA0002DE9F0470F46050061D0434E306800F051
:100EB0000700B84209D2306820F00700384330609C
:100EC000306800F00700B84251D128683B4C8107D8
:100ED00012D5400703D5606840F4E0606060287870
:100EE000000703D5606840F4605060606068A968DE
:100EF00020F0F000084360602878C00728D06868B8
:100F0000012810D02168022810D0890700292EDA84
:100F1000616821F0030101436160FFF72FFF804604
:100F200041F288390DE021688903EFE78901EDE797
:100F3000FFF724FFA0EB0801494502D90320BDE8D3
:100F4000F0876068696800F00C00B0EB810FEFD1AA
:100F5000306800F00700B8420BD9306820F0070075
:100F600038433060306800F00700B84201D00120FB
:100F7000E5E72878400705D56068E96820F4E06077
:100F8000084360602878000706D56068296920F466
:100F9000605040EAC100606000F0A6F86168084A4D
:100FA000C1F30311515CC840064908600648006857
:100FB000FFF704FF0020C2E70020024000100240BB
:100FC000DA1D000810000020080000202DE9F04183
:100FD000FFF7D4FE304C0546206840F00100206049
:100FE00005E000BFFFF7CAFE401B022843D8206877
:100FF0008007F7D5206820F0F80040F080002060DE
:10100000FFF7BCFE00250646656041F2883704E024
:10101000FFF7B4FE801BB8422DD8606810F00C0FAB
:10102000F6D11F491D4808601E480068FFF7C6FE3C
:1010300010B10120BDE8F081FFF7A0FE0646206850
:1010400020F08070206004E0FFF798FE801B0228EB
:1010500011D820688001F7D46560FFF78FFE06463F
:10106000206820F41020206007E000BFFFF786FE14
:10107000801B642801D90320DCE720688003F5D4B5
:10108000206820F480202060606A40F080706062F8
:10109000A5600020CEE700000010024000127A0098
:1010A0001000002008000020044805490068496835
:1010B000044AC1F30221515CC8407047100000206F
:1010C00000100240EA1D000804480549006849680C
:1010D000044AC1F3C221515CC8407047100000208F
:1010E00000100240EA1D00080E4A51680E4801F047
:1010F0000C03042B11D0082B0FD10C48C1F38343F0
:10110000C903C05C0AD55168084AC1F34041921E28
:10111000515C054A5043B0FBF1F070470449484325
:10112000704700000010024000127A00CA1D00083B
:1011300000093D002DE9F84F040070D02078C04D23
:10114000C00749D06868C0F38100012807D06868EB
:10115000C0F38100022809D16868C00306D5286859
:10116000800339D560680028E7D035E06068B0F5C5
:10117000803F0BD010B1B0F5A02F11D0286820F41B
:1011800080302860286820F4802002E0286840F43D
:1011900080302860606890B1FFF7F0FD06460AE0F5
:1011A000286840F480202860F0E700BFFFF7E6FDE4
:1011B000801B642873D828688003F7D50CE0FFF7FC
:1011C000DDFD064605E000BFFFF7D8FD801B642863
:1011D000F0D828688003F7D420789A4E80074FF023
:1011E00001094FF0000839D5686810F00C0F07D0DE
:1011F0006868C0F38100022809D16868C00306D47A
:101200002868800714D52069012808D110E02069DA
:10121000B0B1C6F80090FFF7B1FD074605E00AE15E
:10122000FFF7ACFDC01B0228C4D828688007F7D59B
:101230002868616920F0F80040EAC10028600DE0EC
:10124000C6F80080FFF79AFD074604E0FFF796FD19
:10125000C01B022823D828688007F7D4207800070D
:101260002CD57948A169D9B1C0F80090FFF786FD67
:10127000074604E0FFF782FDC01B02280FD8686A0A
:101280008007F7D571484FF4FA510068B0FBF1F0D0
:10129000009000BF0098411E0091FAD20EE080E05D
:1012A000C0F80080FFF76AFD074604E0FFF766FD1F
:1012B000C01B022875D8686A8007F7D420784007D9
:1012C00060D5E8690027C00008D4E86940F0805084
:1012D000E861E869012700F0805000905C480168EF
:1012E000C90513D40168834641F480710160FFF79A
:1012F00045FD824606E000BFFFF740FDA0EB0A0077
:1013000064284ED8DBF80000C005F5D5E068012858
:101310000AD008B1052813D0286A20F001002862FD
:10132000286A20F0040002E0286A40F001002862E8
:10133000E06841F2883B98B1FFF720FD82460BE060
:10134000286A40F004002862EEE700BFFFF716FDB0
:10135000A0EB0A0159455AD8286A8007F6D50CE057
:10136000FFF70CFD824605E0FFF708FDA0EB0A0140
:1013700059454CD8286A8007F6D41FB1E86920F097
:101380008050E861E06988B36968C1F3810102298E
:1013900044D00228C6F8608004D0FFF7EFFC044672
:1013A00038E034E0FFF7EAFC074604E0FFF7E6FC2C
:1013B000C01B02282BD828688001F7D4206AB0F51A
:1013C000803F05D16868A16820F400300843686058
:1013D000D4E908010843696821F47411084368607E
:1013E000C6F86090FFF7CAFC044606E025E000BF9F
:1013F000FFF7C4FC001B022809D828688001F7D534
:101400001BE000BFFFF7BAFC001B022802D9032033
:10141000BDE8F88F28688001F4D40EE00128F7D0E9
:101420006868226A00F48031914204D1616A00F454
:101430007010884201D00120EAE70020E8E70000B0
:10144000001002400000424280044242100000208E
:101450000070004010B5401EB0F1807F01D3012024
:1014600010BD4FF0E02460610F21601700F0ACFB6D
:101470000020A06107202061002010BD70B504008D
:1014800004D094F84100002510B106E0012070BDA1
:1014900084F84050204600F023F8242084F84100CE
:1014A0002068C16821F40051C160204600F0F6FABE
:1014B0002068016921F4904101612068416921F0AF
:1014C0002A0141612068C16841F40051C16065642E
:1014D000202084F8410084F842006563002070BD3C
:1014E00030B585B000240094019402940394006800
:1014F0001449884224D11448816941F480418161B2
:10150000816901F480410491816941F004018161A4
:1015100080690E4D00F0040004904FF400700090BC
:10152000022001900320039069462846FFF728FB1C
:101530002815CDE90004694628460294FFF720FBF0
:1015400005B030BD003801400010024000080140E5
:101550002DE9F84F044690F842009A4616460D468B
:10156000202802D00220BDE8F88FB5B1AEB100202E
:101570006064222184F842102063FFF7FFFBA685F8
:101580008146E685A0684FF480582027404501D168
:10159000206920B12E46002529E00120E3E700263E
:1015A00025E04B46002220212046CDF800A000F087
:1015B000D1FA18B184F842700320D4E726B1A068AC
:1015C00040451AD038B108E020684068C0F30800F0
:1015D00025F8020B08E0206978B12068406800F027
:1015E0007F0000BF06F8010BE08D401EE085E08D16
:1015F0000028D6D184F84270B5E720684068F1E74A
:101600002DE9F843044690F84100984616460D46E9
:10161000202802D00220BDE8F88385B17EB10020E9
:101620006064212084F84100FFF7A8FBA68481466E
:10163000E684A0682027B0F5805F02D003E0012097
:10164000E9E7206910B12E4600250EE000260CE0E7
:101650008021204600F07EFAA8B9C6B116F8010B29
:1016600021684860E08C401EE084E08C4B464FF0DF
:101670000002CDF800800028EAD14FF0400120465A
:1016800000F068FA40B184F841700320C3E735F8F0
:10169000020BC0F30800E3E784F841700020BAE7CA
:1016A000FEE700000022B0210148FFF761BB000007
:1016B000000801400122B0210148FFF759BB00009A
:1016C00000080140FEE7FEE72DE9F04FADF5297D6A
:1016D00000259048A19090A0A89500902C46AB467C
:1016E000A9462E46A3958FA391A2802181A8FEF73B
:1016F0008DFD00F0C1F94FF47A730C2299A19D4839
:10170000FFF77EFFFFF73AFB074640F6B83A0AE0DC
:1017100064230122A2A99748FFF71AFF18B99DF880
:1017200088023E2805D0FFF729FBC11B5145EFD3A6
:10173000C2E0FFF711FA90493420C8600020A4905D
:101740000120744FDFF834A2A590C7F10008A790DC
:10175000A8A9A4A8A697FFF761F907EB080010F461
:10176000406F06D1FFF7A6FF1420FFF745F9FFF7FA
:1017700099FF07F580675745EAD30A20FFF73CF940
:1017800081A8FEF7D9FD82B24FF4FA6381A97948A6
:10179000FFF736FFFFF7F2FA80467AE075480068F7
:1017A0000168890675D540688DF88802FFF7E6FA6A
:1017B0008046A398A0B1AC4274D2002E5FD09DF8B1
:1017C0008812002349EA01220120A199FFF784F938
:1017D000A198801C0026A190641CA00553D056E05F
:1017E000BBF5FF7F0BD801A99DF8882201F80B20DB
:1017F0000BF101001FFA80FB002001F80B0057A13C
:1018000001A8FEF787FD070043D00120A3905CA14B
:1018100001A8FEF77FFD80B35BA101A8FEF77AFD6A
:1018200018B11030FEF769FD054635B3B5F5584FD0
:1018300042D83F1D01A8391AABEB010000971FFAEF
:1018400080FA002712E0AC4221D200988EB1C15D2F
:10185000002349EA01220120A199FFF73DF9A1984F
:10186000801C0026A1907F1CBFB2641C5745EAD3A0
:101870000DE010F807900126F5E71DE009E09DF85E
:1018800088920126A8E7B0214448FFF769FAAC42E4
:1018900008D2FFF773FAA0EB080043F698218842BC
:1018A000FFF47CAF46B1AC4206D149F47F4200233D
:1018B0000120A199FFF710F9FFF704F94FF47A76A8
:1018C0003046FFF799F83346032235A12948FFF740
:1018D00097FE3046FFF790F87600324629A131A0F6
:1018E000FEF7A6FF6420FFF787F8324625A131A056
:1018F000FEF79EFF64B1AC420AD106480068411C65
:1019000006D0800004D501200DF5297DBDE8F08FBB
:101910000020F9E7002800083137322E32302E310E
:10192000302E37002F7570646174652E62696E0009
:1019300047455420257320485454502F312E300DE4
:101940000A486F73743A2025730D0A436F6E6E65F3
:101950006374696F6E3A20636C6F73650D0A0D0ACC
:101960000000000041542B43495053454E440D0A9A
:1019700000000000140000200020024000000108C8
:10198000323030204F4B0000436F6E74656E742D03
:101990004C656E6774683A20000000000008014042
:1019A0002B2B2B0041542B4349504D4F44453D3088
:1019B0000D0A000041542B434950434C4F53450DF1
:1019C0000A00000070477047FFF7DEB930B58FB0EE
:1019D00028216846FEF7CFFC14210AA8FEF7CBFCAD
:1019E00002250120049000951020059000244FF45A
:1019F0006010CDE9084007956846FFF79BFB08B1EA
:101A000072B6FEE70F20CDE90A054FF48060CDE9FC
:101A10000C4002210AA80E94FFF742FA002801D0D8
:101A200072B6FEE70FB030BD704701680C3151E867
:101A3000002F22F4907241E80023002BF5D10168B9
:101A4000143151E8002F22F0010241E80023002B5D
:101A5000F5D1016B012909D101680C3151E8002F42
:101A600022F0100241E80023002BF5D1202180F85C
:101A700042100021016370471CB5074800680168E7
:101A8000406801900A23012269460348FFF760FD80
:101A90000028F7D01CBD00001400002070B50446DB
:101AA00000680169E26821F4405111430161216934
:101AB000A0680843616908432168CA6841F20C6361
:101AC0009A430243CA6020684169A26921F44071C7
:101AD000114341611E492068884202D1FFF7F4FAA0
:101AE00001E0FFF7E1FA00EBC00101EB00126068D2
:101AF00064218000B2FBF0F3B3FBF1F36FF0180642
:101B00007343B2FBF0F5B2FBF0F605EB830532232D
:101B100003EB0515B5FBF1F5B6FBF1F605F0F005A5
:101B200005EB0615B2FBF0F6B2FBF0F0B0FBF1F0FE
:101B30006FF01802504306EB800003EB0010B0FB7F
:101B4000F1F0216800F00F002844886070BD0000AB
:101B5000003801402DE9F843984617460D460446E3
:101B6000089E24E0701C22D0FFF708F9A0EB0800C3
:101B7000B0421AD8CEB12068C168490717D5802D68
:101B800015D0402D13D00168C94309070FD401684F
:101B90000025406800902046FFF747FF082060645A
:101BA00084F840500120BDE8F8830320FBE720685B
:101BB000006835EA000004D00020B842D2D00020EE
:101BC000F1E70120F9E7FEE70907090E002804DB29
:101BD00000F1E02080F80014704700F00F0000F1E1
:101BE000E02080F8141D704786B0FFF7D5F8FFF7A6
:101BF000EDFE0024604800940194029403948169EE
:101C000041F00401816180695C4D00F004000490A2
:101C10002246B0212846FFF7ABF8B0200090012003
:101C2000CDE901040220039069462846FEF7A8FF8B
:101C300053490A68534E3068534B451C03D080000B
:101C400001D59A4264D10C605FF00005FFF732FDC8
:101C50006420FEF7D1FEFFF725FD6420FEF7CCFEE1
:101C60006D1C052DF2DB4A48484901604FF4E13113
:101C7000C0E901140C21C460C0E904418461C4615D
:101C8000FFF7FCFB08B172B6FEE7FEF7FDFC18B3E8
:101C9000FFF71AFD4FF0000480B14FF4FA7500BF52
:101CA000FFF708FD2846FEF7A7FEFFF7FBFC2846D6
:101CB000FEF7A2FE641C032CF2DB1CE0FFF7FAFC2B
:101CC0003220FEF799FEFFF7EDFC3220FEF794FE7E
:101CD000641C0A2CF2DB0EE05FF00004FFF7EAFC64
:101CE0003220FEF789FEFFF7DDFC3220FEF784FE8E
:101CF000641C142CF2DBBFF34F8F26480168264A80
:101D000001F4E06111430160BFF34F8F00BFFDE7B5
:101D10003568681C22D0A80020D572B64FF0E020AC
:101D20000461446184610020421E810001F1E021D0
:101D3000C1F88021C1F88022401CC0B20828F4D329
:101D4000FFF744F9FEF748FE1248001F066085F3CE
:101D5000088862B60B48001D006880474FF47A740B
:101D6000FFF7A8FC2046FEF747FEFFF79BFC204646
:101D7000FEF742FEF4E700000010024000080140B8
:101D80000040002000280008EFBEADDE0038014012
:101D9000140000200CED00E00400FA0510B5002945
:101DA0000AD00878002807D005487844FEF722FCBE
:101DB000002801D0002010BD0248784410BD00006A
:101DC0006A00000062000000010202030405060729
:101DD00008090A0B0C0D0E0F101000000000000087
:101DE00000000102030406070809000000000102C8
:101DF00003040000241F000800000020140000005D
:101E000028010008381F000814000020CC0800003A
:101E1000440100081001000043000000F8FFFFFF2C
:101E200000404040404040404040414141414140ED
:101E300040404040404040404040404040404040A2
:101E40004005020202020202020202020202020231
:101E50000220202020202020202020020202020236
:101E6000020290909090909010101010101010108E
:101E7000101010101010101010101010020202029A
:101E800002028888888888880808080808080808DE
:101E900008080808080808080808080802020202DA
:101EA00040000000000000000000000000000000F2
:101EB0000000000000000000000000000000000022
:101EC0000000000000000000000000000000000012
:101ED0000000000000000000000000000000000002
:101EE00000000000000000000000000000000000F2
:101EF00000000000000000000000000000000000E2
:101F000000000000000000000000000000000000D1
:101F100000000000000000000000000000000000C1
:101F200000000000000000000100000010000000A0
:081F30000000000000127A001D
:04000005080000ED02
:00000001FF
