:020000040800F2
:10280000203500203D2A0008CD530008714E0008F5
:102810002D520008D5310008F358000800000000D0
:10282000000000000000000000000000A5290008D2
:10283000F931000800000000E929000811550008DE
:10284000572A0008572A0008572A0008572A000864
:10285000572A0008572A0008572A0008572A000854
:10286000572A0008572A0008572A0008572A000844
:10287000572A0008572A0008572A0008572A000834
:10288000572A0008572A0008572A0008572A000824
:10289000572A0008572A0008572A0008572A000814
:1028A000572A0008572A0008572A0008572A000804
:1028B000572A0008572A0008572A0008572A0008F4
:1028C000572A0008572A0008572A0008572A0008E4
:1028D000572A0008572A0008572A0008572A0008D4
:1028E000572A0008572A0008572A000800F002F863
:1028F00000F048F80AA090E8000C82448344AAF152
:102900000107DA4501D100F03DF8AFF2090EBAE84F
:102910000F0013F0010F18BFFB1A43F00103184713
:10292000B8580000D8580000103A24BF78C878C1C1
:10293000FAD8520724BF30C830C144BF04680C60C5
:10294000704700000023002400250026103A28BF0D
:1029500078C1FBD8520728BF30C148BF0B60704711
:10296000642900F0F780752900F0F480782900F0E0
:102970002D81732900F02B83002070471FB51FBDE8
:1029800010B510BD00F07BFB1146FFF7F7FF02F01A
:10299000C8FF00F099FB03B4FFF7F2FF03BC00F09F
:1029A000A1FB0000224B19680868B0E8F00F80F323
:1029B0000988BFF36F8F4FF0000080F311884EF04D
:1029C0000D0E70470000000006480068006880F3A4
:1029D000088862B661B6BFF34F8FBFF36F8F00DF19
:1029E00000BF00BF08ED00E0EFF30980BFF36F8F79
:1029F0000F4B1A6820E9F00F106008B54FF0500037
:102A000080F31188BFF34F8FBFF36F8F04F052F83C
:102A10004FF0000080F31188BDE80840196808688D
:102A2000B0E8F00F80F30988BFF36F8F704700BFE5
:102A30004C000020EFF305807047000009488047F4
:102A400009480047FEE7FEE7FEE7FEE7FEE7FEE790
:102A5000FEE7FEE7FEE7FEE704480549054A064BA8
:102A60007047000091550008ED280008202F002035
:102A70002035002020310020203100200FB47CB50B
:102A80000C0009AA009001D02044401E084B7B4452
:102A900069460190089800F068FA05461CB10020CC
:102AA000694600F075FA28467CBC5DF814FB00000E
:102AB0000905000070B5044685690068C10601D5A6
:102AC000302600E02026C00707D070BDD4E90121E0
:102AD00030469047206A401C20626D1EF6D570BDBE
:102AE00070B5044685690078C00707D170BDD4E988
:102AF000012120209047206A401C20626D1EF6D5DF
:102B000070BD70B50C460546012A05D028788006B0
:102B100000D5EA69002302E0012305E05B1C934233
:102B200002D2E05C0028F9D1A869E618C01AA861B1
:102B3000286A184428622846FFF7BCFF04E0D5E95C
:102B4000012114F8010B9047B442F8D32846FFF74F
:102B5000C7FF70BD2DE9F0410646002410687529B5
:102B6000314616A510D0AFF30080002802DA4042AB
:102B700013A507E031688A0701D512A502E04907CD
:102B800004D511A5012401E0AFF3008000210A2241
:102B900006F1240709E0B0FBF2FCB0FBF2F302FB04
:102BA0001C00303078541846491C0028F3D12346C5
:102BB0002A463046BDE8F04100F078B90000000038
:102BC0002D0000002B0000002000000070B504461E
:102BD0000D4621461068AFF300802188090502D513
:102BE0000F4A7A4402E00E4A7A440E32002104F180
:102BF000240305E000F00F060009965D5E54491CB1
:102C00000028F7D120780023000704D5702D02D0CA
:102C100009B1022311322046BDE8704000F046B9E8
:102C2000325500002DE9F05F894604464FF0000A56
:102C3000DFF824B1FB44C0F820A02046E1688847B3
:102C400000287DD0252806D0D4E901219047206AAC
:102C5000401C2062F1E700255F462046E168884776
:102C60002028064607DB312E05D2B81910F8200CB3
:102C700008B10543F1E7A80701D525F00405C4F81C
:102C80001CA00027C4F818A02A2E09D0304602F054
:102C900041FE38B304EB8708303EC8F8186019E0ED
:102CA00059F8041B204604EB87029161E1688847CC
:102CB000012F064618D1E069002820DA25F020050A
:102CC0001DE0D8F8180000EB800006EB400030381B
:102CD000C8F818002046E1688847064602F01AFE48
:102CE0000028EED1012F0AD02E2E08D12046E1680F
:102CF00088477F1C0646022F45F02005C4DBA069EB
:102D0000002803DA404245F00105A061E80701D040
:102D100025F01005A6B1A6F14100192802D82036E9
:102D200045F400654A463146204625604D46FFF78A
:102D300017FE60B1012807D0ED1D25F0070000E067
:102D400007E000F1080978E705F1040975E7304666
:102D50007AE7206ABDE8F09F0855000030B50546C7
:102D60000B462A4613F8014B12F8010B08B1A0429A
:102D7000F8D01CB1002802D06D1CF1E7284630BD08
:102D800010B5431C02E010F8011B71B18107FAD1A4
:102D90004FF0013202C88C1A8C4314EAC211F9D0E8
:102DA000C01A0A0603D0C01E10BDC01A10BD0A0406
:102DB00001D0801E10BD0902FCD0401E10BD032AA8
:102DC00040F2308010F0030C00F0158011F8013B48
:102DD000BCF1020F624498BF11F801CB00F8013B2F
:102DE00038BF11F8013BA2F1040298BF00F801CBF3
:102DF00038BF00F8013B11F0030300F0EC80083A03
:102E0000C0F0088051F8043B083A51F804CBA0E820
:102E10000810F5E7121D5CBF51F8043B40F8043B75
:102E2000AFF30080D20724BF11F8013B11F801CBAA
:102E300048BF11F8012B24BF00F8013B00F801CB7B
:102E400048BF00F8012B704702F0FF0343EA03225A
:102E500042EA024200F0F3B84FF0000200B5134618
:102E600094469646203922BFA0E80C50A0E80C50AA
:102E7000B1F12001BFF4F7AF090728BFA0E80C505B
:102E800048BF0CC05DF804EB890028BF40F8042B54
:102E900008BF704748BF20F8022B11F0804F18BFC1
:102EA00000F8012B70477047704770472DE9F047D5
:102EB0000D4699469246044600F1240801688806AA
:102EC00004D5E06921F01001216000E00120A84252
:102ED00001DD471B00E00027A1697A1902EB090018
:102EE000081AA0612078C00602D42046FFF7E2FD50
:102EF000002608E0D4E901211AF806009047206A6C
:102F0000401C761C20624E45F4DB2078C0060AD5B2
:102F10002046FFF7CFFD06E0D4E90121302090479D
:102F2000206A401C2062381EA7F10107F4DC07E08C
:102F3000D4E9012118F805009047206A401C20625E
:102F4000281EA5F10105F3DC2046FFF7C9FD207816
:102F5000000602D50220BDE8F0870120FBE7000053
:102F600001694A1C02610878704700B58FB0CDE94D
:102F700001310021059105497944CDE9031011463D
:102F80006846FFF74FFE0FB000BD0000E5FFFFFFF2
:102F90000A6802F8010B0A607047D1E900239A42DF
:102FA00002D2531C0B601070704710B5436913B107
:102FB000AFF3008001E0FFF7A4FD012010BD1278FF
:102FC00000F124010A7000224A700122EDE7116825
:102FD0004FF0FF32E9E710B5203AC0F00B80B1E8BE
:102FE0001850203AA0E81850B1E81850A0E818503E
:102FF000BFF4F5AF5FEA027C24BFB1E81850A0E847
:10300000185044BF18C918C0BDE810405FEA827C60
:1030100024BF51F8043B40F8043B08BF7047D20777
:1030200028BF31F8023B48BF11F8012B28BF20F818
:10303000023B48BF00F8012B70474FF00002042903
:10304000C0F0128010F0030C3FF408AFCCF1040C78
:10305000BCF1020F18BF00F8012BA8BF20F8022B0B
:10306000A1EB0C01FFF7FABE5FEAC17C24BF00F8B8
:10307000012B00F8012B48BF00F8012B7047754663
:1030800000F02CF8AE4605006946534620F00700D4
:10309000854618B020B5FFF7DFFCBDE820404FF0B3
:1030A00000064FF000074FF000084FF0000B21F032
:1030B0000701AC46ACE8C009ACE8C009ACE8C009FF
:1030C000ACE8C0098D46704710B50446AFF30080E8
:1030D0002046BDE81040FFF75EBC00000048704786
:1030E000BC2E002001491820ABBEFEE726000200DE
:1030F0007047000070B5044600688168C943C9077D
:1031000017D1816821F00101816000F085FF05463B
:103110000AE000BF00F080FF401B022804D92068AD
:103120008068C043C00706D020688068C043C007DD
:10313000F0D0002070BDA06A40F01000A062E06AEC
:1031400040F00100E062012070BD0000F8B50026EB
:103150000446009600688168C943C9072DD081687C
:1031600041F001018160164816490068B0FBF1F09A
:1031700000E0401E00900028FBD100F04DFF054606
:1031800016E000BF00F048FF401B022810D920685D
:103190008068C043C0070BD0A06A40F01000A06256
:1031A000E06A40F00100E06284F824600120F8BD8C
:1031B00020688068C043C007E4D10020F8BD00004B
:1031C0004800002040420F00014800F06BBB0000A7
:1031D000E0000020FEE7000030B503460020024674
:1031E000044C04E09D5C4540521C605D92B28A42F2
:1031F000F8D330BDDC7F000870470000ACB000267B
:103200004FF4FA6002F0A4FB0024DFF8D891DFF855
:10321000D881274640F6B83B4FF4FA5173A000F02E
:103220003DF920B14FF0010A4FF4FA7036E0002565
:1032300010E00122B021484600F0E9FEC82002F06B
:1032400087FB0022B021484600F0E1FEC82002F0D2
:103250007FFB6D1C98F800008542EADB584602F0BF
:1032600077FBD9E7E7B100BF4FF4FA5425114FF4CB
:103270007A794FF4FA6800274A465FA15FA000F010
:10328000CBF9284602F064FB214658A000F006F96D
:1032900070B34FF0010A00244FF4967002F058FB0F
:1032A0005A484FF0FF31806A02F036FCDFF8608147
:1032B00098F800102A91D8F804100191D8F8085015
:1032C000284604F047FC009004F080FC294604F0F6
:1032D00075FD504904F0A6FC04F03CFC050000D547
:1032E00045424D4AD8F80C00904205D34BA304E068
:1032F000404602F02DFBBEE749A393460393584591
:1033000001D380F00040804604F024FC029004F0D9
:103310005DFC414604F052FD424904F083FC04F098
:1033200019FC81463A485A460069904201D33BA1B4
:1033300000E03BA18B46904201D380F000408046E4
:1033400004F008FC049004F041FC414604F036FD12
:10335000344904F067FC04F0FDFB80462B48806A8A
:1033600002F037FC0498CDF818B00996CDE90708AB
:103370000298CDE90409DDE90010CDE900010295CC
:1033800029A280210AA82A9BFFF778FB054681B273
:103390000AA8FFF721FF03460AA82844C5F18101C6
:1033A00031A2401EFFF76AFB761CF6B20AA800F0B5
:1033B00077F9012812D0022812D0641CE4B2052C3F
:1033C00001D301270024322002F0C2FA502002F07B
:1033D000BFFABAF1000F3FF447AF43E70024F5E727
:1033E0000127FBE700080140380000203137322E6A
:1033F00032302E31302E37004F4B000041542B43DA
:103400004950434C4F53450D0A0000000000002076
:10341000CC00002000002041000080802D00000032
:10342000000000000000C8427B226D223A25642C77
:103430002261223A25752C2264223A25642E2564C5
:103440002C2270223A257325642E253032642C22DA
:1034500072223A257325642E253032642C22732281
:103460003A25757D000000002C2263223A22253087
:103470003258227D0A0000001CB507480068016828
:10348000406801900A2301226946034801F048FC84
:103490000028F7D01CBD0000A00100202DE9F0415C
:1034A000364C80469AB001200E4620704FF4FA65E3
:1034B0002A4633A133A000F0AFF800285AD0642088
:1034C00002F046FA6A102EA130A000F0A5F86420A0
:1034D00002F03EFA022020702A4629A12DA000F019
:1034E0009BF8002846D0642002F032FA03202070B6
:1034F0002CA2642101A8FFF7C1FA44F6206220A1A2
:1035000001A800F089F838B940F6B8322EA130A0F1
:1035100000F082F800282DD04FF4FA77384602F0F8
:1035200017FA042020702A4615A12CA000F074F888
:10353000C82002F00DFA2A4611A12CA000F06CF868
:10354000C82002F005FA0520207043462BA2642112
:1035500001A80096FFF792FA42F2107208A101A8A2
:1035600000F05AF8002805D0384602F0F1F9FFF7CC
:1035700083FF01201AB0BDE8F08100003800002070
:103580004F4B000041540D0A0000000041544530EB
:103590000D0A000041542B43574D4F44453D310D1A
:1035A0000A00000041542B43574A41503D22747594
:1035B000696B79637563222C2231383033323030B5
:1035C00035220D0A0000000053544149500000000C
:1035D00041542B43494653520D0A000041542B439A
:1035E0004950434C4F53450D0A00000041542B43B2
:1035F00049504D55583D300D0A00000041542B43B1
:10360000495053544152543D22544350222C2225B8
:1036100073222C25750D0A002DE9F043C1B08946AF
:10362000054617464FF480716846FFF715FC0024E5
:10363000FFF722FF2846FFF7A3FB82B24FF47A730D
:103640002946164801F0C4FB00F0E6FC0546A046FA
:103650006E4614E03223012240A9104801F060FBBD
:1036600068B9FF2C06D29DF800013055641CA4B245
:1036700006F8048049466846FFF770FB50B900F031
:10368000CBFC401BB842E5D349466846FFF766FBD2
:10369000002800D0012041B0BDE8F083A001002047
:1036A0002DE9F04F9BB08346FFF76AFB1FFA80FAC3
:1036B00040216846FFF7D0FB4D484FF000090068F5
:1036C000016840684C46199002E0641C202C07DA1F
:1036D00001231A4619A9464801F022FB0028F4D01C
:1036E000534644A2202111A8FFF7C8F911A8FFF7FB
:1036F00047FB82B24FF4FA7311A93D4801F068FB11
:1037000000F08AFC05464FF47A76E84635E014234B
:10371000012210A9364801F003FB70BB9DF8401050
:103720003E292FD0432901D0452926D18DF80010FC
:10373000012400F071FC074610E00A23012210A9C1
:103740002B4801F0EDFA38B99DF8401008F8041044
:10375000641CA4B208F804900A2C04D200F05CFCAB
:10376000C01B6428E9D327A16846FFF7F7FA98BB86
:1037700026A16846FFF7F2FA70BB00F04DFC401B33
:10378000B042C4D3334652465946194801F020FB93
:10379000002440216846FFF75FFB00F03DFC064631
:1037A0004F4645461CE00A23012210A9104801F0AB
:1037B000B7FAA8B93F2C05D29DF840002855641CE3
:1037C000A4B22F5513A16846FFF7C8FA68B90DA136
:1037D0006846FFF7C3FA18B102201BB0BDE8F08FAE
:1037E00000F01AFC801B3228DDD30120F5E7000031
:1037F000A001002041542B43495053454E443D25E0
:10380000750D0A00434C4F53454400004552524F3A
:103810005200000053454E44204F4B003C211B48B2
:1038200001F0B0F8DFF86480194CDFF868A01A4F97
:10383000DFF868B04FF0FF394946A06A02F06CF932
:10384000D8F80000406A85B2A06804F0D7F90646AF
:10385000284604F0D3F9514604F0E4F9314604F067
:10386000B7F8F860A088281A00B204F0AFF95946FA
:1038700004F0D8F9314604F0ABF83861A580A06AAD
:1038800002F0A7F90A2002F063F8D5E758010020FA
:10389000000000200000B443CC0000200080BB45A5
:1038A00072B6FEE7F8B500250446009590F82400AE
:1038B00001280BD0012084F824002046FFF71AFCD1
:1038C0002046FFF743FC060002D050E00220F8BD7E
:1038D000A06A20F4885040F00200A062022000F0AC
:1038E00031FC25490968B1FBF0F0400000E0401EC2
:1038F00000900028FBD12068816841F008018160B8
:1039000000F08AFB074608E000F086FBC01B0A288F
:1039100003D920688068000715D4206880680007F4
:10392000F2D42068816841F00401816000F074FBEA
:10393000074612E000F070FBC01B0A280DD9206872
:103940008068400709D5A06A20F0020040F010000E
:10395000A06284F824500120F8BD206880684007E8
:10396000E8D4A06A20F0020040F00100A06284F8D0
:1039700024503046F8BD000048000020F8B500246F
:10398000009490F824202546012A12D0012280F8C4
:1039900024204A681F23072A0DD20668776B521E1F
:1039A00002EB820293409F430B6893401F4377636F
:1039B00019E00220F8BD06680D2A0AD2376BD21F23
:1039C00002EB820293409F430B6893401F4337638F
:1039D00009E0F76A0D3A02EB820293409F430B68BD
:1039E00093401F43F7620A68072306680A2A0AD32E
:1039F000F7680A3A02EB420293409F438B68934078
:103A00001F43F76008E0376902EB420293409F438F
:103A10008B6893401F4337610A68102A01D0112A2E
:103A200020D1124B02689A4217D193681B0219D415
:103A3000936843F4000393600968102912D10C497C
:103A40000C4A0968B1FBF2F101EB8101490000E089
:103A5000491E00910029FBD104E0816A41F0200158
:103A60008162012480F824502046F8BD00240140E2
:103A70004800002040420F000068C06C7047000002
:103A80002DE9F0414FF0000704003D467ED0A06ACA
:103A9000002628B9E66284F82460204600F07EF80B
:103AA0002046FFF727FBA16AC90600D420B1A06A0F
:103AB00040F01000A06269E0A16A21F4885141F051
:103AC0000201A1626268E169237B0A4347EA43017C
:103AD0000A43A1684FF48077B94209D0012907D081
:103AE0005FF0000194F814C0BCF1010F02D00AE0AD
:103AF0003946F7E7F3B1A36A43F02003A362E36A10
:103B000043F00103E3622368D3F804C02CF4694C4A
:103B10004CEA010CC3F804C021688B68DFF870C060
:103B200003EA0C0313438B60A168B9420BD001294F
:103B300009D00CE0DFF85CC0A3690CEB43330B4306
:103B400043F40061DFE7218A0D05A5F580152168A2
:103B5000CB6A23F470032B43CB62216889680E4B38
:103B60001940914208D1E662A16A21F0020141F0B8
:103B70000101A162BDE8F081A06A20F0020040F0DE
:103B80001000A062E06A40F00100E0620120F1E76D
:103B9000FDF7E1FF00E0FFFFFE0E1FFF00B585B05F
:103BA0000021009101910291039100680E49884221
:103BB00018D10E48816941F400718161816901F475
:103BC00000710491816941F0040181618069694655
:103BD00000F00400049004200090032001900448A9
:103BE00000F020F905B000BD0024014000100240A3
:103BF000000801402DE9F84300270D4604460097D0
:103C000000F00AFA804620688168C90508D5A06AD4
:103C100040F02000A06284F824700120BDE8F88301
:103C20004168C90503D4C06A10F4700F2AD002207D
:103C300000F088FA3B490968B1FBF0F62068036997
:103C400039490B424FEA61014FEAA1121FD1C36803
:103C50004FEA611C13EA0C0F19D103690B4225D1FD
:103C6000C068104222D1142023E0681C0AD02DB174
:103C700000F0D2F9A0EB0800A84203D92068006840
:103C8000800725D5206800688007EED52DE0036900
:103C90000B4202D1C168114206D0026923490A428F
:103CA00006D1C068084203D1542002E0292000E078
:103CB000FC204643009816E0681C11D02DB100F09E
:103CC000ABF9A0EB0800A8420AD90098B04207D28D
:103CD000A06A40F00400A06284F8247003209DE7ED
:103CE0000098401C0090B042E6D321686FF01200AB
:103CF0000860A06A40F40070A06220688068C0F389
:103D0000424007280CD1207B50B9A06A20F4807073
:103D1000A062A06AC00403D4A06A40F00100A062BF
:103D200000207BE748000020244992244992240087
:103D300070B5044690F8240001280DD0012084F8C5
:103D400024002046FFF702FA02004FF0000005D0E1
:103D500084F82400104670BD022070BDA16A40F2B4
:103D60000123994341F48071A1621F4D23681F49CB
:103D7000AB4218D10E6816F4702F14D0A66A46F420
:103D80008016A6620E68760505D5A66A26F400564A
:103D900046F48056A662A66AF6040AD5E66A26F0BC
:103DA0000606E66206E0A66A26F48016A6625E684B
:103DB000E9E7E06284F824006FF0020018602068F0
:103DC0008368C3F34243072B05D1A84208D1096891
:103DD00011F4702F04D0816841F480118160B9E73B
:103DE000816841F4A001F9E7002801400424014062
:103DF00010B5044690F82400012807D0012084F86B
:103E000024002046FFF776F910B107E0022010BD2C
:103E1000A16A21F4885141F00101A162002184F8D6
:103E2000241010BD2DE9F84FDFF8B8910024A9F156
:103E3000040B23460F2709F1040AABF1040EC9E075
:103E40000125A5402A40AA427DD1674ED1F804C081
:103E5000ACEB0608B44532D014DCBCF1030F3AD009
:103E600009DCBCF1000F2AD0BCF1010F1CD0BCF161
:103E7000020F31D11DE0BCF1110F17D0BCF1120FB0
:103E80002AD119E0B8F5881F19D006DCB8F5803FB3
:103E900015D0B8F5801F1FD111E0B8F5001F0ED066
:103EA000B8F5041F18D10AE0CB6815E0CB681B1DDC
:103EB00012E0CB6808330FE0CB680C330CE08B6862
:103EC0002BB1012B4FF0080303D0456104E004231C
:103ED00002E0056100E00023FF2A01D8064601E068
:103EE00000F104064FEA840501D9A5F12005D6F8B2
:103EF000008007FA05FC28EA0C0803FA05F548EAF1
:103F00000508C6F800804D68ED0062D5374DAE69F2
:103F100046F00106AE61AD6924F0030605F0010527
:103F20000095334D06EB050CDCF80850A607360F5C
:103F300007FA06F825EA0805DFF8B880404503D1FE
:103F40004FF0000817E044E0DFF8AC80404502D1B4
:103F50004FF001080FE0DFF8A480404502D14FF098
:103F6000020808E0DFF89880404502D14FF00308CE
:103F700001E04FF0040808FA06F848EA0508CCF812
:103F800008804D68D9F80060ED024D4601D5164312
:103F900000E096432E604D68DAF80060AD025546A9
:103FA00001D5164300E096432E604D68DBF80060B3
:103FB000AD035D4601D5164300E096432E604D6883
:103FC000DEF80060ED03754601D5164300E0964328
:103FD0002E60641C0D682A46E5407FF431AFBDE8D1
:103FE000F88F00000804014000001110001002408A
:103FF0000000014000080140000C01400010014099
:10400000001401408068084000D0012070470AB1C8
:10401000016170470904FBE70148806870470000B0
:104020003C0000200248816802781144816070479A
:104030003C000020074810B5016841F01001016004
:10404000032000F06DF80F2000F006F800F024F8CF
:10405000002010BD0020024070B50D4D04464FF405
:104060007A712878B1FBF0F00A490968B1FBF0F0E9
:1040700000F09CFB48B9102C07D200222146501EAC
:1040800000F02EF800206C6070BD012070BD0000B3
:104090003C000020480000200F4808B5816941F02D
:1040A00001018161816901F001010091C16941F063
:1040B0008051C161C069002200F0805000900F2142
:1040C000901E00F00DF80548416821F0E06141F0D4
:1040D0000071416008BD0000001002400000014076
:1040E000F0B40E4B1B680C46C3F30223C3F1070563
:1040F000042D00D90425191D072901D2002300E051
:10410000DB1E012606FA05F1491E214099409E401A
:10411000761E16403143F0BC01F0ECBB0CED00E024
:10412000064900F0070208684FF6FF03184040EA0E
:104130000220034A10430860704700000CED00E0C5
:104140000000FA0510B501460020234C012922D0B9
:10415000022939D010291DD161682268D20119D5F0
:104160001E48C1F38342C903805C0AD561681B4ABB
:10417000C1F34041921E515C194AB2FBF1F1484330
:1041800001E0184948436168490203D44000032113
:10419000B0FBF1F010BD226AC2F30121012903D165
:1041A000920701D5C80310BD022905D1626A9207A2
:1041B00002D549F6404010BD0329FCD1216889038E
:1041C000F9D54FF2244010BD00F02AF96168C1F31F
:1041D0008131491C4900DBE700100240F0800008F3
:1041E00000127A0000093D002DE9F84305460078E9
:1041F000354CC00754D0E0690026C00008D4E069FF
:1042000040F08050E061E069012600F080500090AD
:104210002E480168C90512D40168804641F48071B6
:104220000160FFF7F9FE074605E000BFFFF7F4FE67
:10423000C01B642823D8D8F80000C005F6D5206A32
:1042400010F4407021D0A98801F4407181421CD043
:10425000206A1F49012220F440700A6000220A608F
:104260002062C00711D0FFF7D7FE074641F2883819
:1042700008E000BFFFF7D0FEC11B414502D9032073
:10428000BDE8F883206A8007F4D5206A696820F4C5
:104290004070084320621EB1E06920F08050E06168
:1042A0002878800705D56068A96820F44040084355
:1042B00060602878C00605D56068E96820F4800051
:1042C000084360600020DBE70010024000700040FF
:1042D000400442422DE9F0470F46050061D0434EAD
:1042E000306800F00700B84209D2306820F00700BB
:1042F00038433060306800F00700B84251D1286878
:104300003B4C810712D5400703D5606840F4E0605C
:1043100060602878000703D5606840F460506060F2
:104320006068A96820F0F000084360602878C00742
:1043300028D06868012810D02168022810D0890789
:1043400000292EDA616821F0030101436160FFF763
:1043500063FE804641F288390DE021688903EFE76A
:104360008901EDE7FFF758FEA0EB0801494502D9A6
:104370000320BDE8F0876068696800F00C00B0EBCE
:10438000810FEFD1306800F00700B8420BD93068D8
:1043900020F0070038433060306800F00700B84272
:1043A00001D00120E5E72878400705D56068E96875
:1043B00020F4E060084360602878000706D5606854
:1043C000296920F4605040EAC100606000F038F8CC
:1043D0006168084AC1F30311515CC840064908608E
:1043E00006480068FFF738FE0020C2E700200240C0
:1043F000001002400081000848000020400000201A
:104400000448054900684968044AC1F30221515C27
:10441000C84070474800002000100240108100088A
:104420000448054900684968044AC1F3C221515C47
:10443000C84070474800002000100240108100086A
:104440000E4A51680E4801F00C03042B11D0082BC2
:104450000FD10C48C1F38343C903C05C0AD551682E
:10446000084AC1F34041921E515C054A5043B0FBDB
:10447000F1F07047044948437047000000100240C3
:1044800000127A00DE80000800093D002DE9F84F97
:10449000040070D02078C04DC00749D06868C0F3D0
:1044A0008100012807D06868C0F38100022809D183
:1044B0006868C00306D52868800339D5606800287D
:1044C000E7D035E06068B0F5803F0BD010B1B0F5B3
:1044D000A02F11D0286820F480302860286820F4AC
:1044E000802002E0286840F480302860606890B145
:1044F000FFF792FD06460AE0286840F48020286015
:10450000F0E700BFFFF788FD801B642873D8286898
:104510008003F7D50CE0FFF77FFD064605E000BFFE
:10452000FFF77AFD801B6428F0D828688003F7D451
:1045300020789A4E80074FF001094FF0000839D5D6
:10454000686810F00C0F07D06868C0F3810002287B
:1045500009D16868C00306D42868800714D520698B
:10456000012808D110E02069B0B1C6F80090FFF72B
:1045700053FD074605E00AE1FFF74EFDC01B022888
:10458000C4D828688007F7D52868616920F0F8004A
:1045900040EAC10028600DE0C6F80080FFF73CFD4E
:1045A000074604E0FFF738FDC01B022823D828681F
:1045B0008007F7D4207800072CD57948A169D9B1B4
:1045C000C0F80090FFF728FD074604E0FFF724FD40
:1045D000C01B02280FD8686A8007F7D571484FF4CE
:1045E000FA510068B0FBF1F0009000BF0098411E46
:1045F0000091FAD20EE080E0C0F80080FFF70CFDD9
:10460000074604E0FFF708FDC01B022875D8686A5A
:104610008007F7D42078400760D5E8690027C000FC
:1046200008D4E86940F08050E861E869012700F0AB
:10463000805000905C480168C90513D40168834626
:1046400041F480710160FFF7E7FC824606E000BF9D
:10465000FFF7E2FCA0EB0A0064284ED8DBF800006C
:10466000C005F5D5E06801280AD008B1052813D0A7
:10467000286A20F001002862286A20F0040002E085
:10468000286A40F001002862E06841F2883B98B156
:10469000FFF7C2FC82460BE0286A40F00400286263
:1046A000EEE700BFFFF7B8FCA0EB0A0159455AD866
:1046B000286A8007F6D50CE0FFF7AEFC824605E0DD
:1046C000FFF7AAFCA0EB0A0159454CD8286A8007DD
:1046D000F6D41FB1E86920F08050E861E06988B342
:1046E0006968C1F38101022944D00228C6F86080BC
:1046F00004D0FFF791FC044638E034E0FFF78CFC6F
:10470000074604E0FFF788FCC01B02282BD8286866
:104710008001F7D4206AB0F5803F05D16868A168B0
:1047200020F4003008436860D4E908010843696850
:1047300021F4741108436860C6F86090FFF76CFCC0
:10474000044606E025E000BFFFF766FC001B0228D8
:1047500009D828688001F7D51BE000BFFFF75CFC93
:10476000001B022802D90320BDE8F88F28688001C9
:10477000F4D40EE00128F7D06868226A00F4803192
:10478000914204D1616A00F47010884201D0012086
:10479000EAE70020E8E70000001002400000424283
:1047A00080044242480000200070004010B5401EC6
:1047B000B0F1807F01D3012010BD4FF0E024606193
:1047C0000F21601701F096F80020A06107202061FA
:1047D000002010BD10B590F83C20012A22D0012203
:1047E00080F83C20CA688C6822F4407222434C68EE
:1047F00022F4806222430C6822F4006222430C6996
:1048000022F4805222434C6922F400522243C969A7
:10481000002322F480420A4301684A6480F83C3055
:10482000002010BD022010BD70B590F83C20012A78
:1048300026D0012480F83C40022280F83D20036805
:104840005A689D6822F070060A6832435A600D4B20
:1048500002689A4208D0B2F1804F05D00A4B9A42C2
:1048600002D00A4B9A4204D1496825F080031943CB
:10487000916080F83D40002180F83C10084670BDF2
:10488000022070BD002C01400004004000080040E0
:104890002DE9F0410D46040003D094F83D0018B115
:1048A00008E00120BDE8F081002084F83C002046AB
:1048B00000F040F8022084F83D002068816844F24E
:1048C000070291438160211D206800F069FE226883
:1048D00090689169166A2B68AF69034340F2033010
:1048E000814341EA0721A868EF6908434FF6FC417C
:1048F0008843E96840EA0720014328692F6A0001DC
:1049000040EA0730084369686D6926F0220646EAE6
:104910000515294393602268906154F8460B0162A3
:10492000012004F81F09E0752076E0762077A07555
:104930000020B7E700B585B00021009101910291F8
:1049400003910068B0F1804F16D10C48C16941F065
:104950000101C161C16901F001010491816941F066
:10496000040181618069694600F00400049003201D
:1049700000900348FFF756FA05B000BD0010024052
:104980000008014070B590F83E60044690F83F5032
:1049900090F8423090F84320022021B104290ED033
:1049A000012E1BD114E0012E18D1012B16D184F851
:1049B0003E0084F8420001220021206820E0012D01
:1049C0000CD1012A0AD184F83F0084F8430014E096
:1049D000012D03D1012B01D1012A01D0012070BD8D
:1049E00084F83E0084F83F0084F8420084F84300D5
:1049F00001220021206800F00FFE0122042120681E
:104A000000F00AFE2068016841F001010160002009
:104A100070BD000000B585B00021009101910291A8
:104A2000039100680B49884212D10B48816941F01B
:104A3000040181618069694600F0040004904FF42C
:104A4000807000900220019003900448FFF7EAF97B
:104A500005B000BD002C01400010024000080140DC
:104A600070B5044690F83C0000260D4601280FD092
:104A7000012084F83C006AB1042A1DD0082A2FD0F6
:104A80000C2A3FD00126002084F83C00304670BD3F
:104A9000022070BD206800F0CDFD2068816941F0E2
:104AA000080181612068816921F004018161206829
:104AB00081692A69114311E0206800F0E3FD206854
:104AC000816941F4006181612068816921F480611C
:104AD0008161206881692A6941EA02218161D2E706
:104AE000206800F0FBFD2068C16941F00801C16148
:104AF0002068C16921F00401C1612068C1692A6987
:104B0000114311E0206800F015FE2068C16941F4EE
:104B10000061C1612068C16921F48061C1612068C0
:104B2000C1692A6941EA0221C161ACE710B50400FC
:104B300003D094F83D0010B107E0012010BD002023
:104B400084F83C00204600F01FF8022084F83D0065
:104B5000211D206800F024FD012084F8460084F81F
:104B60003E0084F83F0084F8400084F8410084F857
:104B7000420084F8430084F8440084F8450084F837
:104B80003D00002010BD000008B5006806498842BD
:104B900008D10648816941F400618161806900F4AF
:104BA0000060009008BD0000002C01400010024091
:104BB00010B50446022249B104290ED0082913D0A9
:104BC00094F84100012816D0012010BD94F83E0051
:104BD0000128F9D184F83E200FE094F83F00012825
:104BE000F2D184F83F2008E094F840000128EBD18E
:104BF00084F8402001E084F841200122206800F080
:104C00000BFD0F492068884203D1426C42F40042F8
:104C100042642068884208D0B0F1804F05D009492D
:104C2000884202D00849884204D1816801F0070116
:104C3000062903D0016841F001010160002010BD88
:104C4000002C0140000400400008004070B5040042
:104C500004D094F84100002510B106E0012070BD99
:104C600084F84050204600F023F8242084F84100C6
:104C70002068C16821F40051C160204600F0A4FD05
:104C80002068016921F4904101612068416921F0A7
:104C90002A0141612068C16841F40051C160656426
:104CA000202084F8410084F842006563002070BD34
:104CB00030B585B0002400940194029403940068F8
:104CC0001449884224D11448816941F480418161AA
:104CD000816901F480410491816941F0040181619D
:104CE00080690E4D00F0040004904FF400700090B5
:104CF000022001900320039069462846FFF792F8AE
:104D00002815CDE90004694628460294FFF78AF881
:104D100005B030BD003801400010024000080140DD
:104D20002DE9F84F044690F842009A4616460D4683
:104D3000202802D00220BDE8F88FB5B1AEB1002026
:104D40006064222184F842102063FFF765F9A6858C
:104D50008146E685A0684FF480582027404501D160
:104D6000206920B12E46002529E00120E3E7002636
:104D700025E04B46002220212046CDF800A000F07F
:104D80007FFD18B184F842700320D4E726B1A068F3
:104D900040451AD038B108E020684068C0F30800E8
:104DA00025F8020B08E0206978B12068406800F01F
:104DB0007F0000BF06F8010BE08D401EE085E08D0E
:104DC0000028D6D184F84270B5E720684068F1E742
:104DD0002DE9F843044690F84100984616460D46E2
:104DE000202802D00220BDE8F88385B17EB10020E2
:104DF0006064212084F84100FFF70EF9A684814603
:104E0000E684A0682027B0F5805F02D003E001208F
:104E1000E9E7206910B12E4600250EE000260CE0DF
:104E20008021204600F02CFDA8B9C6B116F8010B70
:104E300021684860E08C401EE084E08C4B464FF0D7
:104E40000002CDF800800028EAD14FF04001204652
:104E500000F016FD40B184F841700320C3E735F837
:104E6000020BC0F30800E3E784F841700020BAE7C2
:104E7000FEE7000008B5DFF8C4B0DFF8C4A0314C8D
:104E800001215D465846FFF7BDF807464FF48061A3
:104E90002846FFF7B7F806464FF400612846FFF7AB
:104EA000B1F8054600F018FB814602F0A7FE26493E
:104EB00002F0B8FE254902F08BFD80464FF0FF312D
:104EC000A06A00F029FE4946CAE90118D1466FB927
:104ED000207801280AD100208DF8000089F8000010
:104EE000034602466946606A00F0E2FD66B96078F2
:104EF000012809D18DF8000089F8000000231A4626
:104F00006946606A00F0D4FD6DB9A07801280AD125
:104F100002218DF8001089F8001000231A46694616
:104F2000606A00F0C5FDA06A00F053FE277066704D
:104F3000A5700A2000F00CFDA2E70000000C014063
:104F4000CC000020000000200000C84200F07F4597
:104F50003EB5002411480094019402940E498460E7
:104F6000016004730475012505614FF460214460FC
:104F7000C161FEF785FD08B1FEF792FC0220CDE984
:104F80000005694602940548FEF7F8FC002801D0A8
:104F9000FEF786FC3EBD000000240140E00000203A
:104FA00010B5214800F0E1FD204C1F4A0121A0620C
:104FB0001032084600F02EFE1B4AE062183A01212A
:104FC000102000F049FD184A6062F03A00211848AC
:104FD00000F06CFE144AE060CC3A0021154800F065
:104FE00065FE114A2061A83A0021134800F05EFED8
:104FF0000D4A6061843A0021104800F057FE0A4AC9
:10500000A061603A00210E4800F050FE064AE061BF
:105010003C3A00210B4800F049FE20620248203053
:1050200000F0A3FC206310BDAC7F0008000000204E
:1050300009550008754E0008315200081D38000857
:10504000FD310008D15300082DE9F04186B000245D
:1050500023480094019402940394816941F004016F
:105060008161816901F004010491816941F00801C5
:10507000816180691B4F00F0080004900022B0217C
:105080003846FEF7C4FFDFF860800022D02140469A
:10509000FEF7BDFFB02001250226CDE90005CDE9D0
:1050A000024669463846FEF7BDFE40F601408DE8EF
:1050B000310069464046FEF7B5FE28038DE85100F1
:1050C00069464046FEF7AEFED020CDE90005CDE9A9
:1050D000024669464046FEF7A5FE06B0BDE8F081EF
:1050E0000010024000080140000C014010B592B0D1
:1050F00000240F941C2108A81094FDF7ADFE202178
:105100006846FDF7A9FE20481E49C0E9001440F694
:105110000F61C0E90241046144618461FFF706FD4B
:1051200008B1FEF7BDFB0F940FA917481094FFF7C5
:105130007BFB08B1FEF7B4FB6020CDE908040A94BC
:105140000B940C940D94002208A90F480E94FFF7BD
:1051500087FC08B1FEF7A4FB00944FF40050CDE9A2
:105160000440029401940394694607480794FFF7AA
:1051700031FB08B1FEF794FB0348FFF74BFC12B07C
:1051800010BD0000002C01401001002010B58CB0B3
:1051900024216846FDF760FE0024154809944FF06D
:1051A00080410A94C0E900144FF6FF71C0E9024142
:1051B000046184610320CDE900040120CDE90204EB
:1051C0000494CDE905400794694609480894FFF71F
:1051D0005FFB08B1FEF764FB099409A904480A942F
:1051E000FFF722FB002801D0FEF75AFB0CB010BDE0
:1051F000580100200C4810B50A4901604FF4E13114
:105200004160002181600C22C160C0E9041281610B
:10521000C161FFF71BFD002803D0BDE81040FEF779
:105220003FBB10BD00380140A0010020FEE7000098
:1052300008B500215D48FFF7BBFCDFF874B15D4C99
:105240005D4DDFF8688102264FF0000A0A23002234
:105250006946606A00F0CEFB002871D19DF800001D
:1052600020B1012834D002286AD184E0DEB1D8F818
:105270000010C1F834A0DFF8449100264FF0FF3150
:10528000A06A00F049FC2F69A06A00F0A2FC4F451B
:1052900002DA4B48874206D30A2000F059FB761CFD
:1052A000B6B2642EEAD3012280215E465846FEF74C
:1052B000AEFE012210213046FEF7A9FE0022402159
:1052C0003046FEF7A4FE00F0FFF80122102132E084
:1052D000012E1CD0D8F80010C1F834A0DFF8DC9003
:1052E000002600BF4FF0FF31A06A00F015FC2F69C7
:1052F000A06A00F06EFC4F4502DA3148874206D3BF
:105300000A2000F025FB761CB6B2642EEAD30122F7
:1053100080215E465846FEF77AFE00221021304674
:10532000FEF775FE012240213046FEF770FE00F0C8
:10533000CBF8012220212348FEF769FE9DF800608A
:105340004FF0FF31A06A00F0E7FBD5F80890A06AA3
:1053500000F03FFC022E23D0D8F80070F86A02F06B
:105360004DFC494602F05EFC174902F031FB02F0A9
:105370000DFC78636AE7002280215E465846FEF7FE
:1053800046FE002210213046FEF741FE0022402159
:105390003046FEF73CFE00F097F801228021CAE774
:1053A000D8F80010C1F834A050E700001001002028
:1053B000000C014000000020CC0000200000204133
:1053C000000020C1000801400000C842FEE70000C4
:1053D0002F4E4FF4805421463046FEF713FE01282D
:1053E0000AD00025B046214647464046FEF70AFE51
:1053F000012803D0002646E00125F3E70126C5BBBE
:10540000FEF70AFE0546B24640F6B839B8460FE048
:1054100021464046FEF7F6FD01284FF0320002D04B
:1054200000F096FA2FE000F093FABAF1000F2AD0BC
:10543000FEF7F2FD411B4945EAD3BAF1000F22D035
:10544000144F00250122B0213846FEF7E0FD64200C
:1054500000F07EFA0022B0213846FEF7D8FD642025
:1054600000F076FA6D1C0A2DECDB00F015F84546CD
:1054700003E008E0642000F06BFA21462846FEF7BE
:10548000C1FD0128F6D03546642000F061FAAAE794
:10549000000C014000080140084907480860BFF3BC
:1054A0004F8F07480168074A01F4E061114301602A
:1054B000BFF34F8F00BFFDE7EFBEADDE0040002021
:1054C0000CED00E00400FA050022B0210148FEF7CF
:1054D0009EBD00000008014010B50948FEF728FCF9
:1054E0000A210748FEF786FB064C18B90448FEF768
:1054F000C3FA20600248FEF77BFC206810BD000064
:10550000E000002034000020012000F021FAFBE739
:1055100010B5FEF787FD02F007F8012803D0BDE8BB
:10552000104001F071BB10BD30B593B02821684622
:10553000FDF792FC14210AA8FDF78EFC002401203F
:105540000F9402250490009510201194059010945A
:10555000129407946846FEF799FF08B172B6FEE709
:105560000F20CDE90A040C940D9400210AA80E9492
:10557000FEF7B0FE08B172B6FEE70FA80F951194C2
:10558000FEF732FE002801D072B6FEE713B030BD40
:1055900002490148086070470028000808ED00E053
:1055A000F0B50268194B1A4C1A4D4FF080479842DB
:1055B00005D0B84203D0A04201D0A84203D122F0C6
:1055C00070064A683243984205D0B84203D0A042E0
:1055D00001D0A84203D122F44074CA6822434C6926
:1055E00022F08002224302608A68C2620A688262F4
:1055F000984201D109690163012141610169C9072B
:1056000003D0016921F001010161F0BD002C0140CE
:10561000000400400008004010B501F01F03012104
:10562000046A99408C430462016A9A401143016202
:1056300010BD000030B5036A026A22F00102026266
:105640004268846924F073050C682C4323F002053A
:105650008B682B430A4DA8420BD123F00805CB6879
:1056600022F440722B434D6923F0040315438A69E9
:105670002A434260846149684163036230BD00008F
:10568000002C014030B5026A036A23F01003036264
:10569000436884690D6824F4E64444EA05248D686F
:1056A00022F0200242EA05120B4DA8420ED1CD682D
:1056B00022F0800242EA05124D6923F4406343EA76
:1056C00085038D6922F0400243EA850343608461CB
:1056D00049688163026230BD002C014030B5036A25
:1056E000026A22F4807202624268C46923F4007381
:1056F00024F073050C682C438D6843EA05230C4D98
:10570000A8420ED1CD6823F4006343EA05234D6916
:1057100022F4405242EA05128D6923F4806342EA82
:1057200005124260C4614968C163036230BD000074
:10573000002C014030B5046A026A22F480520262F1
:105740004268C3690D6823F4E64343EA05238D6884
:1057500024F4005444EA0534064DA84204D14D69AE
:1057600022F4804242EA85124260C36149680164C2
:10577000046230BD002C014001680C3151E8002F5B
:1057800022F4907241E80023002BF5D10168143116
:1057900051E8002F22F0010241E80023002BF5D14F
:1057A000016B012909D101680C3151E8002F22F069
:1057B000100241E80023002BF5D1202180F842108F
:1057C000002101637047000070B50446006801695C
:1057D000E26821F44051114301612169A068084346
:1057E000616908432168CA6841F20C639A43024325
:1057F000CA6020684169A26921F440711143416186
:105800001E492068884202D1FEF70AFE01E0FEF739
:10581000F7FD00EBC00101EB00126068642180001D
:10582000B2FBF0F3B3FBF1F36FF018067343B2FB76
:10583000F0F5B2FBF0F605EB8305322303EB05151B
:10584000B5FBF1F5B6FBF1F605F0F00505EB061535
:10585000B2FBF0F6B2FBF0F0B0FBF1F06FF0180223
:10586000504306EB800003EB0010B0FBF1F0216821
:1058700000F00F002844886070BD0000003801402F
:105880002DE9F843984617460D460446089E24E045
:10589000701C22D0FEF7C0FBA0EB0800B0421AD863
:1058A000CEB12068C168490717D5802D15D0402D8D
:1058B00013D00168C94309070FD401680025406867
:1058C00000902046FFF758FF0820606484F840509D
:1058D0000120BDE8F8830320FBE72068006835EA73
:1058E000000004D00020B842D2D00020F1E701200F
:1058F000F9E7FEE70907090E002804DB00F1E020C4
:1059000080F80014704700F00F0000F1E02080F8EC
:10591000141D704730380A2801D20120704700203A
:105920007047FEF787FBFFF7FFFDFFF78DFBFFF7E3
:105930000FFBFFF75FFCFFF7D9FBFFF727FCFDF735
:1059400043FC00F029F8FFF72BFB00F037F8FEE7E7
:1059500010B5EFF3058111B16FF0050403E00024E9
:1059600008B100F0ABFF204610BD10B54FF00001AC
:10597000EFF305826AB948B1D0E902202AB12028A4
:1059800007D3104601F0D6F802E010B901F0C4F8D0
:105990000146084610BD0000EFF3058010B16FF01E
:1059A000050070470448016811B14FF0FF3070479F
:1059B00001210160002070479C00002010B5EFF32A
:1059C000058010B16FF0050010BD0848016801297D
:1059D00002D04FF0FF3010BD054A002182F8141D9F
:1059E0000221016001F01AF8002010BD9C00002087
:1059F0000BE000E0F8B51D466FF003026FF0020601
:105A00004FF00004EFF30583A3B1F0B1E9B1E5B9BC
:105A1000002200926A4601F0C5FB012817D10098C8
:105A2000B0B10C494FF080500860BFF34F8FBFF307
:105A30006F8F0DE048B141B12A4601F017FB0128F4
:105A400006D025B16FF0010402E0144600E03446B0
:105A50002046F8BD04ED00E0F8B514464FF000050F
:105A6000EFF3058212BB08B301B3A4B1D4E902324B
:105A700063B1502A1AD32269C2B1676900FB01F6EB
:105A8000B74213D3009501F04BF907E072B92269D0
:105A900062B9626952B9002201F021F9050005D00E
:105AA0000CB1216800E0002100F0A6FE2846F8BDF8
:105AB000F8B51D466FF003026FF002064FF00004C8
:105AC000EFF30583ABB100B3F9B1F5B9002213468A
:105AD00000926A4601F04CFA012818D10098B8B13A
:105AE0000C494FF080500860BFF34F8FBFF36F8FAA
:105AF0000EE050B149B100232A4601F089F901288E
:105B000006D025B16FF0010402E0144600E03446EF
:105B10002046F8BD04ED00E02DE9F0410D460146B8
:105B200021F0010001F001014FF00004EFF30582C4
:105B30000AB1A41F16E048B100296FF001066FF00A
:105B40000207294608D001F037FC07E06FF0030494
:105B500008E035B1344605E001F072FB0128F8D1C8
:105B600000E03C462046BDE8F08170B505464FF0A8
:105B70000004EFF3058050BB0DB1686800E0002021
:105B8000C10701D0012600E0002600071FD46DB137
:105B9000D5E9021021B1502819D31EB1042002E02A
:105BA00020B114E0012001F08DF805E00EB10420D1
:105BB00000E0012001F07BF8040008D00DB1296855
:105BC00000E0002100F018FE0EB144F00104204670
:105BD00070BD70B5014621F0010001F001014FF0E8
:105BE0000004EFF305820AB1A41F11E028B16FF0A1
:105BF000020529B101F01BFA07E06FF0030407E08A
:105C000000231A46194601F003F9012800D02C465A
:105C1000204670BDF8B5144603460E464FF0000509
:105C2000EFF3058098BB93B39E423DD84CB1A0687A
:105C30000028E06803D0502836D3012002E008B1E4
:105C400032E00020012B05D010B31846A26801F005
:105C50000EF820E040B10320009000221146012000
:105C6000A36801F05DF804E003220021012001F0A7
:105C700036F8050018D086B100231A46194601F0FF
:105C8000C7F8012809D0284600F0CAFD00250BE01E
:105C9000184600F0CFFF050006D00CB1216800E0E7
:105CA0000021284600F0A8FD2846F8BD2DE9FF4157
:105CB0004FEA01034FF00005EFF30581039549BB5F
:105CC00040B38027182100244AB3166806B1344631
:105CD00096691EB13146761E382E02D21679F60725
:105CE00003D0002004B0BDE8F081566906B1B708C2
:105CF000D2F808C0BCF1000F0DD0D5685C2D18D3C8
:105D000012693AB136B18DE806103A46214601F0E3
:105D1000DAFB03900DE0D6685EB912694AB903AAAE
:105D2000CDE90012BAB2214601F0A0FB012800D053
:105D300003950398D6E700002DE9F041134C0F4678
:105D40000546E6682068001D00F058FC681C07D175
:105D500037B12168BDE8F0410D48091D00F09EBC37
:105D600020683544B5424560216805D2A06BBDE886
:105D7000F041091D00F07ABC606B091D00F076FC53
:105D8000A06A854200D2A562BDE8F0814C000020E7
:105D9000D80600202DE9F041054600F08BFC2D4C83
:105DA000A068401CA06020682B4F10B1606930B320
:105DB0002BE02560A068012827D1002606EB86008D
:105DC00007EB800000F044FC761C382EF6D3234805
:105DD00000F03EFC2148143000F03AFC1F48283007
:105DE00000F036FC1D483C3000F032FC1B485030BF
:105DF00000F02EFC194860631430A06305E02068B1
:105E0000E96AC06A884200D82560606A401C606206
:105E10006864E86A2169884200D9206100EB80004B
:105E200007EB8000291D00F039FC00F063FC60697D
:105E300000280CD02068E96AC06A884207D2084965
:105E40004FF080500860BFF34F8FBFF36F8FBDE8F6
:105E5000F08100004C00002028020020880600206D
:105E600004ED00E038B500F025FC104C2068C8B9FE
:105E70000F4800F0EDFB0E48143000F0E9FB0C4831
:105E8000E060143020610A4B0020F03B009003F1E9
:105E9000500210210A2000F043FF206010B105A13C
:105EA00000F0AAFCBDE8384000F024BC88000020C7
:105EB000DC070020546D72510000000030B4026C09
:105EC0000B46002A0BD0C1681144C1608468A1420E
:105ED00001D30168C16030BC1846FCF770BF30BC0C
:105EE00070472DE9F041856B174604460026026C89
:105EF00082B1C7B1E068FCF762FFE168206C091A63
:105F0000E1602268914202D2A168081AE060022F83
:105F100016D017E02068A8B9A06801F07DFB0646FE
:105F20000020A0600EE06068FCF749FF216C60680B
:105F300008446060A168884204D32068606001E082
:105F400005B16D1E6D1CA5633046BDE8F08110B52E
:105F5000044690F8590058B101280CD002280FD0FF
:105F6000502080F31188BFF34F8FBFF36F8FFEE790
:105F7000206B00F0D3FB2046BDE8104000F0CEBB04
:105F800010BD000010484FF40051420706D0C01D5C
:105F90000D4920F00700411AC1F500510B4A0023BA
:105FA0000144C2E900030839183A21F007011160E1
:105FB0004B600B600B1AC0E9001393604FF0004078
:105FC0005360506170470000BC0E0020B8000020F4
:105FD000144E154CA6F29C474FF08058DFF84C90B9
:105FE00012E000BF00F066FBF068C568281D00F0F5
:105FF00005FBA068401EA0606068401E606000F065
:1060000079FB2846FFF7A3FF60680028EAD13868CB
:106010000128F9D9C9F80080BFF34F8FBFF36F8F04
:10602000F2E70000C40600204C00002004ED00E070
:10603000002807D00021816001600B460A46C1603C
:1060400000F0E6BE7047000070B51D46049C51B1DB
:10605000C4F80020C4E90F010121204600F094FE9D
:1060600084F84C5070BD2460F4E700002DE9F05F27
:106070008846DDE90B941546834691009A460A9EB0
:10608000A522206BFCF7E0FE6FF00301206B01EB13
:106090008501084420F00707780707D0502080F3D7
:1060A0001188BFF34F8FBFF36F8FFEE70025B8F164
:1060B000000F0FD05FF00000221818F8001082F8CF
:1060C000341018F8001011B1401C1028F4D384F8D3
:1060D000435001E084F83450382E00D33726E6626E
:1060E000C4E91365201D00F0BEFA04F1180000F0A9
:1060F000BAFA2461C6F138006462A061656584F86B
:10610000585052465946384600F066FA2060B9F1B8
:10611000000F01D0C9F80040BDE8F09F30B511492B
:1061200000E011460A688242FBD34B685C18844247
:1061300003D1406818444860084643681C189442DC
:1061400009D1084C183C2468A24209D052681A446C
:1061500042600A6812680260814200D0086030BD67
:106160000460F9E7B800002070B5002441600B4DD1
:106170000061914206D8D11A8269914206D2011D6E
:10618000286907E09A4203D2994201D3012403E02F
:10619000011DE86800F06AFA204670BD8800002002
:1061A00010B5044600F086FAA06B28B15FF0000439
:1061B00000F0A0FA204610BD0124F9E730B589B0FF
:1061C0003C4D6EE00498002806DADDE90601059AE8
:1061D00090470498002864DB069C606910B1201D7C
:1061E00000F00CFA03A800F0D7F8024604980A2839
:1061F00057D2DFE800F00505052D334A05052D339C
:1062000094F8280040F0010084F828000599A0695E
:10621000059B01442046FFF7A7FF68B3216A20468B
:10622000884794F8280040073BD500200090059847
:10623000A169002342181946204601F033FBD8B962
:10624000502080F31188BFF34F8FBFF36F8FFEE7AD
:1062500014F8280F20F00100207022E094F82800A4
:1062600040F0010084F828000598A06128B1811849
:1062700013462046FFF778FF13E0502080F3118883
:10628000BFF34F8FBFF36F8FFEE794F828008107AD
:1062900003D4204600F042FA03E020F0010084F825
:1062A0002800002204A9286800F0E0FE002889D117
:1062B00009B030BD880000202DE9FC410F4605469D
:1062C00000F0F0FB01A800F067F80446019818B14F
:1062D00001F056FABDE8FC81254EAFB13069006887
:1062E000D0B30027291B3A46306800F0C5FA01F008
:1062F00047FA0028EED11F494FF080500860BFF3E5
:106300004F8FBFF36F8FE5E7A542EBD801F038FA66
:10631000F0682746C068C468201D00F06FF994F843
:106320002800410719D5A0692B4641193A46204655
:10633000FFF71AFFA8B100200346014600902A4645
:10634000204601F0AFFA60B9502080F31188BFF306
:106350004F8FBFF36F8FFEE707E020F0010084F856
:106360002800216A20468847B4E70127BAE70000E1
:106370008800002004ED00E00648416B096829B15F
:10638000416BC968C9684968816270474FF0FF3145
:10639000FAE700004C00002070B5054601F0D2F885
:1063A000064E0446B068844203D200F009F801208A
:1063B00000E0002028602046B46070BD8800002006
:1063C000F8B5194D20E0C068C4680668201D00F0CB
:1063D00015F9216A2046884794F82800400713D50C
:1063E000A0693044B04206D924616060211DE8688C
:1063F00000F03CF908E000200346014600903246D8
:10640000204601F04FFA38B1E86801680029DAD176
:106410002969C5E90310F8BD502080F31188BFF346
:106420004F8FBFF36F8FFEE7880000200848406859
:10643000401C4FF0500080F3118804D0BFF34F8F01
:10644000BFF36F8FFEE7BFF34F8FBFF36F8FFEE792
:10645000C0000020074CE068016841B1C06800211D
:10646000D0F80000FFF728FFFFF7A8FEF3E70121AF
:106470000020F7E7880000202DE9F041044600F0F5
:1064800019F994F9455004F1240609E0606A48B10D
:10649000304601F03DF908B100F03EFA6D1E6DB2D4
:1064A000002DF3DC4FF0FF3684F8456000F022F950
:1064B00000F000F994F9445004F1100709E0206954
:1064C00048B1384601F024F908B100F025FA6D1EF4
:1064D0006DB2002DF3DC84F84460BDE8F04100F0BB
:1064E00009B900002DE9F0410546002700F0DAFA6D
:1064F000324E306808B9FFF745FD706905424ED14C
:10650000C5B3083568070ED005F00700C0F10800D4
:106510000544680707D0502080F31188BFF34F8FE0
:10652000BFF36F8FFEE72DB37068854237D82348DD
:10653000183001460C6801E020460C466168A9420B
:1065400002D221680029F7D131688C4227D0076830
:106550002168016060680837411B10290FD9601954
:10656000420708D0502080F31188BFF34F8FBFF34C
:106570006F8FFEE713E041606560FFF7CFFD616854
:106580007068401A7060B268904200D2B060706962
:1065900001430020C4E90001F068401CF06001F0F4
:1065A000EFF8780707D0502080F31188BFF34F8FA2
:1065B000BFF36F8FFEE73846BDE8F081A0000020F2
:1065C0000449086818B10868026D521C0265086821
:1065D000704700004C00002010B5031F4FF080747E
:1065E0001C601B1F21F001011960191F024B0B6079
:1065F000143940380A6010BD2D640008D0E901321A
:1066000001699A60D0E901235A604A68824201D147
:1066100082684A60002202610868401E08600868BB
:1066200070470000034B036003F15C0008608020AA
:106630001060704704080020044B036003F15C0005
:1066400008604FF48070106070470000600A0020FE
:1066500000F108014FF0FF32C0E90112C160016191
:1066600000210160704700210161704730B50B685F
:106670005A1C02D000F1080202E0026904E022463E
:10668000546825689D42FAD953684B6099608A60C6
:10669000516008610168491C016030BD42684A6070
:1066A00093688B6093685960916008610168491C28
:1066B00001607047502080F31188BFF34F8FBFF304
:1066C0006F8F0A494868401C486001280CD108486F
:1066D000006810F0FF0F07D0502080F31188BFF33F
:1066E0004F8FBFF36F8FFEE770470000C0000020A0
:1066F00004ED00E00849486828B1401E486001D117
:1067000080F311887047502080F31188BFF34F8FBA
:10671000BFF36F8FFEE70000C000002070B50028B7
:106720002AD0164DA0F1080460686969084207D1B3
:10673000502080F31188BFF34F8FBFF36F8FFEE7B8
:1067400022683AB1502080F31188BFF34F8FBFF316
:106750006F8FFEE78843606000F0A4F960686968A5
:10676000084468602046FFF7D9FC2869401C28616E
:10677000BDE8704001F004B870BD0000A00000202A
:106780004FF0E02000210161816105494FF47A72E8
:106790000968B1FBF2F1491E4161072101617047AF
:1067A0004800002010B5FCF745F9114910280ED318
:1067B00000F1E02090F8F0030A78904207D25020D0
:1067C00080F31188BFF34F8FBFF36F8FFEE7094847
:1067D0000068896800F4E060884207D9502080F39F
:1067E0001188BFF34F8FBFF36F8FFEE710BD00001E
:1067F000C00000200CED00E010B5084B002200BFE7
:1068000053F832401CB1521C082AF9D310BD43F88A
:10681000321003EBC201486010BD0000E801002007
:1068200010B504000AD000F013F894F846000028D0
:106830000CD12046BDE81040FFF770BF502080F318
:106840001188BFF34F8FBFF36F8FFEE710BD0000BD
:10685000084A002102EBC1035B68834206D1002095
:1068600042F8310002EBC10148607047491C082919
:10687000F0D37047E801002070B515460E46044677
:10688000FFF718FF94F944100020491C01D184F847
:10689000440094F94510491C01D184F84500FFF7E4
:1068A00029FFA06B28B92A46314604F1240000F0E4
:1068B00051F82046BDE87040FFF7DEBD10B502007C
:1068C00014D00F48006B38B1502080F31188BFF30B
:1068D0004F8FBFF36F8FFEE700F0E4F80021104602
:1068E000FFF72AFA00F04CFF002807D105494FF0C6
:1068F00080500860BFF34F8FBFF36F8F10BD000053
:106900004C00002004ED00E002490A6A0260C968F8
:10691000416070474C00002001490120C861704768
:106920004C00002010B50C4650B1094909681831D7
:10693000FFF79CFE2046BDE810400121FFF7FCB99F
:10694000502080F31188BFF34F8FBFF36F8FFEE7A6
:106950004C00002070B514460D4668B10A4909681C
:106960001831FFF79BFE0CB14FF0FF35214628464A
:10697000BDE87040FFF7E0B9502080F31188BFF305
:106980004F8FBFF36F8FFEE74C00002070B50400FF
:106990003ED0226DA2B1E06C884200D30146E06A8D
:1069A000884235D0012A33D11A4D2A6894420FD13A
:1069B000502080F31188BFF34F8FBFF36F8FFEE736
:1069C000502080F31188BFF34F8FBFF36F8FFEE726
:1069D000E162A269002A02DBC1F13801A1610E4E19
:1069E00000EB8000616906EB8000814210D1201D20
:1069F000FFF704FEE06A2969884200D9286100EBAC
:106A0000800006EB8000211DBDE87040FFF746BE08
:106A100070BD00004C0000202802002030B587B077
:106A20000024039405AA04A903A80494FFF7FAFD1F
:106A3000DDE903010094CDE90110002315A11748F9
:106A4000059A00F040FD164D0028E8621FD000F0C6
:106A5000F9FE012809D0401C19D1502080F311887B
:106A6000BFF34F8FBFF36F8FFEE7502080F3118885
:106A7000BFF34F8FBFF36F8F4FF0FF30A86201203D
:106A80006861EC6007B0BDE8304000F069B807B05D
:106A900030BD000049444C4500000000D15F0008B3
:106AA0004C0000200248016B491C01637047000044
:106AB0004C000020164810B5016B11B10121C161D5
:106AC00010BD0021C1610169124A01E0B9B1491E3E
:106AD00001EB810352F82330002BF7D001EB810347
:106AE00002EB830202F1080453685B685360A3421F
:106AF00001D15B685360DA680260016110BD50200B
:106B000080F31188BFF34F8FBFF36F8FFEE7000054
:106B10004C0000202802002070B52020FFF7E2FC86
:106B2000040005D00025201D2560FFF791FD257785
:106B3000204670BD38B558B1202104460020009190
:106B40002060201DFFF784FD01202077204638BDFE
:106B5000502080F31188BFF34F8FBFF36F8FFEE794
:106B60001CB5264908780190FF20087008788DF838
:106B700000009DF800009DF8002000F0F000904219
:106B800007D0502080F31188BFF34F8FBFF36F8F72
:106B9000FEE79DF800001A4C00F05000207007201E
:106BA000A06005E09DF8002052008DF80020401EF6
:106BB0009DF800201206F5D4A060032807D05020CD
:106BC00080F31188BFF34F8FBFF36F8FFEE74FF451
:106BD0004070A060019808700A48016841F4700193
:106BE0000160016841F070410160FFF7C9FD0020BC
:106BF0006060FBF7E9FE00201CBD000000E400E03F
:106C0000C000002020ED00E010B5502080F3118876
:106C1000BFF34F8FBFF36F8F00F09AFC18B1044998
:106C20004FF080500860002080F3118810BD0000F4
:106C300004ED00E010B50C4648B184420FD9502055
:106C400080F31188BFF34F8FBFF36F8FFEE75020A3
:106C500080F31188BFF34F8FBFF36F8FFEE70222DF
:106C6000002100F03CF8002800D0846310BD38B546
:106C70000C4648B184420FD9502080F31188BFF3ED
:106C80004F8FBFF36F8FFEE7502080F31188BFF363
:106C90004F8FBFF36F8FFEE7022113460022009152
:106CA000114600F03DF8002800D0846338BD10B5CF
:106CB00002460021012000F012F80446FFF7B8F95F
:106CC000204610BD38B50B46002200901146012029
:106CD00000F026F80446FFF7ABF9204638BDF8B5BA
:106CE00017460E46050013D005FB06F05030FFF79F
:106CF000F9FB04000AD0002084F8460004F1500299
:106D00003B46314628460094FFF79EF92046F8BDE1
:106D1000502080F31188BFF34F8FBFF36F8FFEE7D2
:106D200038B5049D18B153B1CAB181B120E05020EB
:106D300080F31188BFF34F8FBFF36F8FFEE75020B2
:106D400080F31188BFF34F8FBFF36F8FFEE75020A2
:106D500080F31188BFF34F8FBFF36F8FFEE739B118
:106D6000502080F31188BFF34F8FBFF36F8FFEE782
:106D700050241C46012384F846302B460094FFF72C
:106D800063F9204638BD000070B50D46040025D0DB
:106D9000FFF790FCD4E90F20216802FB0011A160ED
:106DA0000021A163216861600A46D4E90F01401EF9
:106DB00000FB0121E16021464FF0FF3001F8440F54
:106DC000487004F110008DB1FFF742FC04F124007B
:106DD000FFF73EFCFFF78EFC012070BD502080F3D2
:106DE0001188BFF34F8FBFF36F8FFEE72169002932
:106DF000F0D000F08DFC0028ECD004494FF080501A
:106E00000860BFF34F8FBFF36F8FE3E704ED00E03F
:106E10002DE9FF4782B01D468A464FF00008040066
:106E200003D0BAF1000F08D011E0502080F3118890
:106E3000BFF34F8FBFF36F8FFEE7206C38B1502048
:106E400080F31188BFF34F8FBFF36F8FFEE7022DE2
:106E50000AD1E06B012807D0502080F31188BFF3DE
:106E60004F8FBFF36F8FFEE700F05EFB3F4F4FF099
:106E700000094FF0805648B9049838B1502080F38B
:106E80001188BFF34F8FBFF36F8FFEE7FFF712FC40
:106E9000A06BE16B884207D3022D05D00498D0B1D6
:106EA000B8F1000F1AD01EE02A4651462046FFF7DF
:106EB00018F8616A19B104F1240000F029FC20B12E
:106EC0003E60BFF34F8FBFF36F8FFFF713FC0120BE
:106ED00006B0BDE8F087FFF70DFC22E06846FFF73B
:106EE00013FD4FF00108FFF705FCFFF7DBFDFFF78F
:106EF000E1FB94F94400401C01D184F8449094F9DA
:106F00004500401C01D184F84590FFF7F3FB04A92C
:106F1000684600F071FA30B12046FFF7ADFA00F094
:106F20002FFC0020D4E7FFF7C5FBA06BE16B884284
:106F300013D1FFF7DFFB04F110000499FFF7F2FC17
:106F40002046FFF799FA00F01BFC00289ED13E6016
:106F5000BFF34F8FBFF36F8F98E7FFF7CBFB204650
:106F6000FFF78AFA00F00CFC90E7000004ED00E067
:106F70002DE9F0471F4690468946040003D0B9F139
:106F8000000F08D011E0502080F31188BFF34F8F1D
:106F9000BFF36F8FFEE7206C38B1502080F311886B
:106FA000BFF34F8FBFF36F8FFEE7022F0AD1E06B65
:106FB000012807D0502080F31188BFF34F8FBFF313
:106FC0006F8FFEE7FFF7EEFB5020EFF3118680F3A3
:106FD0001188BFF34F8FBFF36F8FA06BE16B8842B7
:106FE00006D3022F04D0002086F31188BDE8F08775
:106FF00094F94550A06B3A4649462046FEF771FF8A
:10700000681C04D06D1C84F845500120ECE7606AD0
:107010000028FAD004F1240000F07AFB0028F4D014
:10702000B8F1000FF1D00121C8F80010EDE710B55C
:10703000040009D000F072FAA168884214D1E06817
:10704000401EE06008D00DE0502080F31188BFF3AF
:107050004F8FBFF36F8FFEE700231A461946204675
:10706000FFF7D6FE012010BD002010BD2DE9F74727
:10707000002683B08A46040003D0BAF1000F08D07E
:1070800011E0502080F31188BFF34F8FBFF36F8F53
:10709000FEE7206C38B1502080F31188BFF34F8F8A
:1070A000BFF36F8FFEE700F03FFADFF8F4804FF098
:1070B00000094FF0805748B9059838B1502080F347
:1070C0001188BFF34F8FBFF36F8FFEE7FFF7F2FA20
:1070D000A56BC5B151462046FEF7F0FE6D1EA563B7
:1070E000206950B104F1100000F012FB28B1C8F87B
:1070F0000070BFF34F8FBFF36F8FFFF7FBFA0120D4
:1071000006B0BDE8F087059808B11EB106E0FFF7AC
:10711000F1FA27E06846FFF7F7FB0126FFF7EAFAE6
:10712000FFF7C0FCFFF7C6FA94F94400401C01D1F8
:1071300084F8449094F94500401C01D184F84590AE
:10714000FFF7D8FA05A9684600F056F9002820464E
:107150000AD0FFF791F900F013FB2046FFF720F863
:107160000028B3D00020CBE7FFF71AF890B104F164
:1071700024000599FFF7D6FB2046FFF77DF900F0C4
:10718000FFFA0028A2D1C8F80070BFF34F8FBFF3F9
:107190006F8F9BE72046FFF76FF900F0F1FA95E754
:1071A00004ED00E02DE9F04790468946040003D045
:1071B000B9F1000F08D011E0502080F31188BFF31F
:1071C0004F8FBFF36F8FFEE7206C38B1502080F3F4
:1071D0001188BFF34F8FBFF36F8FFEE7FFF7E2FA1F
:1071E0005020EFF3118680F31188BFF34F8FBFF368
:1071F0006F8FA76BF7B194F9445049462046FEF7CC
:107200005DFE7F1EA763681C04D06D1C84F844508B
:10721000012010E020690028FAD004F1100000F0ED
:1072200077FA0028F4D0B8F1000FF1D00121C8F8A6
:107230000010EDE7002086F31188BDE8F08700001C
:107240002DE9F343002683B00400354609D0206CB5
:1072500078B1502080F31188BFF34F8FBFF36F8F49
:10726000FEE7502080F31188BFF34F8FBFF36F8F7D
:10727000FEE700F059F9DFF83C814FF000094FF0CC
:10728000805748B9049838B1502080F31188BFF373
:107290004F8FBFF36F8FFEE7FFF70CFAA06BC8B1FB
:1072A000401EA063206810B9FFF78AF9A06020692A
:1072B00050B104F1100000F02BFA28B1C8F80070AA
:1072C000BFF34F8FBFF36F8FFFF714FA012005B0A4
:1072D000BDE8F083049808B166B10FE03DB15020DD
:1072E00080F31188BFF34F8FBFF36F8FFEE7FFF777
:1072F00001FA5DE06846FFF707FB0126FFF7FAF9A0
:10730000FFF7D0FBFFF7D6F994F94400401C01D1F8
:1073100084F8449094F94500401C01D184F84590CC
:10732000FFF7E8F904A9684600F066F8002820464F
:1073300012D0FFF7A1F800F023FA2046FEF730FF45
:107340000028A9D09DB3FFF7B5F9606A50B3206B50
:107350000068C0F1380126E0FEF722FFE0B12068A6
:1073600038B9FFF7A7F9A06800F096F90546FFF7CE
:10737000C1F904F124000499FFF7D4FA2046FFF77D
:107380007BF800F0FDF9002886D1C8F80070BFF343
:107390004F8FBFF36F8F7FE72046FFF76DF800F048
:1073A000EFF979E70021A068FFF7F0FA9FE7FFE720
:1073B00000208CE704ED00E070B50D46040009D014
:1073C00000F0ACF8A16888420CD1E068401CE06095
:1073D000012070BD502080F31188BFF34F8FBFF3A1
:1073E0006F8FFEE729462046FFF72AFF0028F0D0DE
:1073F000E168491CE16070BD2DE9F0410C460500D3
:1074000011D0C4B1FFF756F9174BDA686E682068DF
:10741000911B471C17D02F681B6A9F4219D09642B8
:1074200017D8012410E0502080F31188BFF34F8F4C
:10743000BFF36F8FFEE7502080F31188BFF34F8FAB
:10744000BFF36F8FFEE70024FFF754F92046BDE835
:10745000F081884205D9401A20602846FFF754FA87
:10746000F1E700202060DCE74C0000202DE9FF5F01
:107470008346DDE90E87994616468A469000FFF757
:1074800031F805001CD05C20FFF72CF8040014D064
:107490000020256384F85900CDE90240CDE900873A
:1074A0004B46324651465846FEF7E0FD2046FEF771
:1074B00071FC012004B0BDE8F09F2846FFF72EF9CB
:1074C0004FF0FF30F6E7F0B585B0DDE90B640A9DBB
:1074D000A6B1DCB15C2700972663022684F85960C8
:1074E000002604AFCDE90246CDE90057FEF7BEFD08
:1074F0002046FEF74FFC049805B0F0BD502080F305
:107500001188BFF34F8FBFF36F8FFEE7502080F3DA
:107510001188BFF34F8FBFF36F8FFEE701480068FC
:10752000704700004C0000200548416919B1006B0C
:1075300018B10020704701207047022070470000FA
:107540004C0000200148C068704700004C0000203B
:107550002DE9F0412E4C0027206B28B1A069401C7A
:10756000A0613846BDE8F081E668761CE66013D17C
:10757000606B006838B1502080F31188BFF34F8FE3
:10758000BFF36F8FFEE7606BA16B6163A063206A3E
:10759000401C2062FEF7F0FEA06ADFF87880864289
:1075A00009D3606B0068A0B1606BC068C56868688B
:1075B000864211D2A0622068C06A00EB800158F8B0
:1075C0002100012800D90127E0690028C9D001273E
:1075D000C7E74FF0FF30EDE7281DFFF70FF8A86A67
:1075E00018B105F11800FFF709F8E86A2169884227
:1075F00000D9206100EB800108EB8100291DFFF715
:107600004DF8E86A2168C96A8842CAD30127C8E7E9
:107610004C0000202802002070B504004FF000014B
:1076200033D01B4D2868844207D0502080F3118846
:10763000BFF34F8FBFF36F8FFEE7206D38B1401E51
:107640002065E36CE26A9A421FD040B11DE05020F1
:1076500080F31188BFF34F8FBFF36F8FFEE7201DBC
:10766000FEF7CCFFE06CE062C0F13800A061E06A98
:107670002969884200D92861064900EB800001EBA6
:107680008000211DFFF70AF80121084670BD0000A7
:107690004C0000202802002070B504004FF00000CC
:1076A0002BD0194DE16A2A68D26A914226D2A0698C
:1076B000002804DB2868C06AC0F13800A061134EBE
:1076C00001EB8101606906EB8101884211D1201D27
:1076D000FEF794FF2868C06AE0622969884200D9F1
:1076E000286100EB800006EB8000211DFEF7D6FF2D
:1076F00002E02868C06AE062012070BDE16C2A687F
:10770000D26A9142F8D370BD4C00002028020020BC
:1077100070B5C068C46854B104F118000646FEF79D
:107720006DFF144D286B50B13146134815E05020C1
:1077300080F31188BFF34F8FBFF36F8FFEE7201DDB
:10774000FEF75CFFE06A2969884200D928610B498D
:1077500000EB800001EB8000211DFEF79FFFE06A37
:107760002968C96A884202D90120E86170BD0020F9
:1077700070BD00004C000020B00600202802002050
:107780002DE9F0472C4D00242746286B38B1FEF731
:1077900091FF286B401E2863286B40B146E05020C3
:1077A00080F31188BFF34F8FBFF36F8FFEE7A96897
:1077B000224E0120D1B3A6F5916980463068E0B130
:1077C000F068C46804F11800FEF718FF201DFEF7EA
:1077D00015FFE06A2969884200D9286100EB800121
:1077E00009EB8100211DFEF759FFE06A2968C96A8B
:1077F0008842E3D3C5F81C80E0E70CB1FEF7BCFD7E
:10780000AC694CB14FEA0806FFF7A2FE00B1EE6189
:10781000641EF9D10020A861E86938B10849012740
:1078200038070860BFF34F8FBFF36F8FFEF762FF1B
:107830003846BDE8F08700004C000020B00600206C
:1078400004ED00E010B586B0FEF70CFB114C20688B
:10785000B8B100200390049005AA04A903A8FEF77C
:10786000EBFEDDE9032102208DE8070000230AA1D9
:107870000B48059AFFF727FE606010B106B00120A3
:1078800010BD502080F31188BFF34F8FBFF36F8F6F
:10789000FEE7000088000020546D722053766300DC
:1078A000556400082DE9FF411E46134602000A9D5B
:1078B0004FF0000016D0144C2768002F0FD0CDE9F0
:1078C00000130292062917DAFFF72EFE02284FF066
:1078D00000030FD0002269462068FFF799FA04B030
:1078E000BDE8F081502080F31188BFF34F8FBFF3C4
:1078F0006F8FFEE72A46EEE7002332466946384698
:10790000FFF736FBEBE700008800002090EA010F4C
:1079100048BF81F0004100F16282421A3CBF801AE8
:1079200089184FEAD0524FF07F4C1CEA410FA2EB6E
:10793000D15318BF9CEA026F00F03B804FF0004C1F
:107940004CEA00204CEA012121FA03FC10EB0C0C5C
:107950001ED202F1FF325FEA1C2040EBC25038BF5A
:1079600070471CF07F0F4FEA400C18BFBCF17F4FEF
:1079700038BF7047C3F12003994008BF20F00100D1
:10798000BCF17F4F38BF7047A0F1C04000F011BA82
:107990004FEA3C00000A40EBC25028BF1CF0FF0F2A
:1079A0004FEA400CE6D018BFBCF17F4F38BF70479C
:1079B000EAE79CEA026F05D010EA5C0F08BF00F00E
:1079C0000040704710B500F0AEF900BF64FBBE3E4A
:1079D0004FF47F0C1CEAD0121EBF1CEAD11392EAAE
:1079E0000C0F93EA0C0F00F0858090EA010F48BF5E
:1079F00042F4807240F4000C41F400002CF07F410E
:107A000020F07F4000B58142A2EB03020FF2081C78
:107A1000ACEB504EC0F100009EF800E04FEA4E0E75
:107A200000FB0EFC38BF49004FEA2C1C02F5FA029D
:107A30000CFB0EF34FEACE1E4FEA112C4FEAC12188
:107A40000EEB635E42EB22420EFB0CFC4FEA1C5332
:107A500000FB03114FEA112C4FEA01310EFB0CFC25
:107A60004FEADC4C00FB0C11C14228BF09184CEB5B
:107A700003335DF804EB10EB410143EBC250B2F568
:107A80007C0F38BF704729D512F0F00F1CBF00F1F2
:107A9000C04000F000407047008182838485868763
:107AA00088898B8C8D8E8F919293959697999A9CBD
:107AB0009D9FA0A2A3A5A7A8AAACAEB0B2B3B5B72C
:107AC000B9BCBEC0C2C5C7C9CCCED1D4D7D9DCDF02
:107AD000E2E6E9ECF0F3F7FAFE0000004FEA400CB2
:107AE0000CF1807CBCF17E4F28BF7047B0F1C040E4
:107AF00000F05FB990EA010F0CEAD11348BF42F4DD
:107B00008072624538BF634507D213F47F0F16D0E9
:107B100080EA010000F00040704710B500F003F962
:107B2000097EFC3E00F005B880EA010000F000404C
:107B3000704780EA010000F0004000F03AB912F40A
:107B40007F0F04BF0248704780EA010000F031B99E
:107B50000000C07F41000B0ED3F19E0208D950F403
:107B600000034FEA032323FA02F048BF4042704764
:107B700010B500F0D8F800BF49922480002070476B
:107B80006FF0004282EA200070470000C10DD1F181
:107B90009E0206DB4FEA002343F0004323FA02F083
:107BA0007047004207D54FEA4001B1F1FE4F02D2C3
:107BB0004FF00000704710B500F0B5F849922480EE
:107BC000002070476FEA20007047000010F000416D
:107BD00048BF4042B0FA80F310FA03F2C3F19D03AC
:107BE0000BD051EAC35101EB1220530638BF704746
:107BF00000F1010008BF20F001007047B0FA80F3E7
:107C000010FA03F2C3F19D030AD0D90501EB12204B
:107C1000530638BF704700F1010008BF20F0010093
:107C2000704700004FF47F0C1CEAD0121EBF1CEA04
:107C3000D11392EA0C0F93EA0C0F00F0478090EA00
:107C4000010F48BF42F480724FF0004C4CEA002014
:107C50004CEA012102EB0302A0FB0113A2F5000292
:107C6000002918BF43F001035B0028BF4FEA33032C
:107C700042EB22425FEA132C4CEBC2502EBFBCEB0E
:107C8000436FB2F57C0F70474FEA036CBCF1004FB5
:107C900008BF20F00100B2F57C0F38BF70470BD54C
:107CA00082F0FF0212F5803FC8BF704700F1C0406C
:107CB000D8BF00F00040704700F5000C5FEA4C0CA4
:107CC00048BF7047B0F1C04000F073B890EA010FB0
:107CD0000CEAD11348BF42F48072624538BF634555
:107CE00004D280EA010000F00040704710B500F0B7
:107CF0001AF800BF8900013E00F007B800F009B88B
:107D00005FEA410C5FEA1C6C08D080EA010000F0D9
:107D100050B85FEA400C5FEA1C6CF6D14FF00040AF
:107D2000A0F5800070470EF1020E2EF0030E5EF8F3
:107D3000044B244204D44FEA4102B2F17F4F11D8E0
:107D40004FEA4003B3F17F4F0CD80ED14FEAD07CFD
:107D5000B2F17F4F0CEB4C0C0CF1020C08BF4CEB5A
:107D6000D17C04E04FF0080C01E04FEAD17C0CEB31
:107D70004C0324FA03F404F00704B4F1040C06D213
:107D80000EEB840CBDE810404CF0010C6047DFE8BE
:107D90000CF0070802024FF00040A0F5800010BD73
:107DA0000846420018BFD2F1807288BF00F0004040
:107DB00010BDFF2141EAD050C005704780F000405F
:107DC00090EA010F7FF5A9AD81F0004100F007B8FE
:107DD00090EA010F48BF81F000413FF59EAD421A85
:107DE00004D882F00042A0EB020011444FEAD052C6
:107DF0004FF07F4C1CEA410FA2EBD15318BF9CEA15
:107E0000026F4AD04FF0004C4CEA00204CEA0121AE
:107E100021FA03FCB0EB0C0C0FD412F0FE0F36D09D
:107E20005FEA4C001DD5001240EBC25038BF7047CE
:107E30001CF03F0F18BF70470BE0A2F101025FEA90
:107E40001C2040EBC25038BF70471CF07F0F18BF9A
:107E50007047C3F12003994014BF401E20F0010079
:107E6000704780084FEA122308BF7047B0FA80FCC1
:107E7000A2EB0C02CCF1280C60FA0CF093EA122F62
:107E800004BF00EBC25070474FEAC3707047130A3B
:107E90005FEADC1008BF7047F6E79CEA026F04D087
:107EA00010EA5C0F08BF0020704710B5FFF73BFFDA
:107EB00040DFF63E81F0004070470000AC810008D2
:107EC00000000000000000000000000000000000B2
:107ED0000002000018000000000000000000000088
:107EE000B881000800000000000000000000000051
:107EF0000000000000040000080000000000000076
:107F000000000000A0810008000000000000000048
:107F10000000000000000000000200000800000057
:107F20000000000000000000948100080000000034
:107F3000000000000000000000000000000200003F
:107F40000800000000000000000000008C81000814
:107F50000000000000000000000000000000000021
:107F60000004000008000000000000000000000005
:107F700084810008000000000000000000000000F4
:107F800000000000000400000800000000000000E5
:107F900000000000708100080000000000000000E8
:107FA000000000000000000000000000C481000884
:107FB00000000000000000000000000054810008E4
:107FC00000000000000000000000000064810008C4
:107FD00000000000000000000000000000070E0983
:107FE0001C1B1215383F363124232A2D70777E79D9
:107FF0006C6B6265484F464154535A5DE0E7EEE9C9
:10800000FCFBF2F5D8DFD6D1C4C3CACD90979E99B8
:108010008C8B8285A8AFA6A1B4B3BABDC7C0C9CEA8
:10802000DBDCD5D2FFF8F1F6E3E4EDEAB7B0B9BE98
:10803000ABACA5A28F88818693949D9A2720292E88
:108040003B3C35321F18111603040D0A5750595E78
:108050004B4C45426F68616673747D7A898E878068
:1080600095929B9CB1B6BFB8ADAAA3A4F9FEF7F058
:10807000E5E2EBECC1C6CFC8DDDAD3D4696E676048
:1080800075727B7C51565F584D4A4344191E171038
:1080900005020B0C21262F283D3A33344E49404728
:1080A00052555C5B7671787F6A6D64633E39303718
:1080B00022252C2B0601080F1A1D1413AEA9A0A708
:1080C000B2B5BCBB9691989F8A8D8483DED9D0D7F8
:1080D000C2C5CCCBE6E1E8EFFAFDF4F301020203FE
:1080E0000405060708090A0B0C0D0E0F10100102FB
:1080F00002030405060708090A0B0C0D0E0F1010E9
:108100000000000000000000010203040607080947
:1081100000000000010203043031323334353637B9
:1081200038394142434445464030580030313233BB
:1081300034353637383961626364656640307800BB
:108140000400000800000000000000020001000020
:10815000100000006D7942696E61727953656D306F
:10816000310000006D794576656E74303100000095
:108170006D6F746F72436F6D6D616E64517565756F
:10818000650000004F54415461736B0045535054D7
:1081900061736B00456E636F6465725461736B004D
:1081A0004D6F746F725461736B000000646566619B
:1081B000756C745461736B00496E7075745461739F
:1081C0006B00000073797374656D53746174654D51
:1081D0007574657800000000F88100080000002038
:1081E000CC00000028290008C4820008CC00002030
:1081F000543400004429000801010100000000007F
:108200001A0600000000000000000000000000004E
:10821000000000000000000000000000000000005E
:10822000000000000000000000000000000000004E
:10823000000000000100000010000000000000002D
:1082400000127A00000000000000000000000000A2
:10825000000000000000000000000000000000001E
:10826000000000000000000000000000000000000E
:1082700000000000000000000000000000000000FE
:1082800000000000000000000000000000000000EE
:1082900000000000000000000000000000000000DE
:1082A00000000000000000000000000000000000CE
:1082B000000000000000000000000000AAAAAAAA16
:0482C00000000000BA
:04000005080028EDDA
:00000001FF
