:020000040800F2
:100000006808002091010008990100089B01000880
:100010009D0100089F010008A101000800000000E8
:10002000000000000000000000000000A301000824
:10003000A501000800000000A7010008810C0008CD
:10004000AB010008AB010008AB010008AB010008E0
:10005000AB010008AB010008AB010008AB010008D0
:10006000AB010008AB010008AB010008AB010008C0
:10007000AB010008AB010008AB010008AB010008B0
:10008000AB010008AB010008AB010008AB010008A0
:10009000AB010008AB010008AB010008AB01000890
:1000A000AB010008AB010008AB010008AB01000880
:1000B000AB010008AB010008AB010008AB01000870
:1000C000AB010008AB010008AB010008AB01000860
:1000D000AB010008AB010008AB010008AB01000850
:1000E000AB010008AB010008AB01000800F002F80A
:1000F00000F03FF80AA090E8000C82448344AAF183
:100100000107DA4501D100F034F8AFF2090EBAE880
:100110000F0013F0010F18BFFB1A43F0010318473B
:10012000340E0000540E0000103A24BF78C878C185
:10013000FAD8520724BF30C830C144BF04680C60ED
:10014000704700000023002400250026103A28BF35
:1001500078C1FBD8520728BF30C148BF0B60704739
:10016000732900F06081002070471FB51FBD10B5D6
:1001700010BD00F0B5F91146FFF7F7FF00F030FEB3
:1001800000F0D3F903B4FFF7F2FF03BC00F0DAF993
:100190000948804709480047FEE7FEE7FEE7FEE71B
:1001A000FEE7FEE7FEE7FEE7FEE7FEE70448054957
:1001B000054A064B70470000E10C0008ED000008FE
:1001C00068020020680800206804002068040020FD
:1001D0000FB41CB50C0007AA009001D02044401EAB
:1001E000074B7B4469460190069800F0EAF8002C22
:1001F00003D06946002000F0F7F81CBC5DF814FB42
:100200000D0200002DE9F0410E4604460020206258
:100210002046E168884730B3252805D0D4E901217C
:100220009047206A401CF2E7E16820460027884793
:10023000050018D0A5F14100192802D820354FF447
:1002400000673246294620462760FFF789FF40B104
:10025000012804D0F61D26F007060836D8E7361D1B
:10026000D6E72846DAE7206ABDE8F08170B50C468B
:100270000546012A05D02878800600D5EA690023C2
:1002800002E0012305E05B1C934202D2E05C0028FF
:10029000F9D1A869E618C01AA861286A184428622A
:1002A0002846AFF3008004E0D5E9012114F8010BE2
:1002B0009047B442F8D32846AFF3008070BD30B504
:1002C00005460B462A4613F8014B12F8010B08B1FC
:1002D000A042F8D01CB1002802D06D1CF1E72846DE
:1002E00030BD032A40F2308010F0030C00F015807E
:1002F00011F8013BBCF1020F624498BF11F801CB29
:1003000000F8013B38BF11F8013BA2F1040298BF8D
:1003100000F801CB38BF00F8013B11F0030300F0F7
:100320008680083AC0F0088051F8043B083A51F83A
:1003300004CBA0E80810F5E7121D5CBF51F8043BA0
:1003400040F8043BAFF30080D20724BF11F8013B13
:1003500011F801CB48BF11F8012B24BF00F8013B75
:1003600000F801CB48BF00F8012B70474FF00002A6
:100370000429C0F0128010F0030C00F08C80CCF146
:10038000040CBCF1020F18BF00F8012BA8BF20F825
:10039000022BA1EB0C0100F07EB85FEAC17C24BF08
:1003A00000F8012B00F8012B48BF00F8012B704723
:1003B000704770477047000001694A1C0261087865
:1003C000704700B58FB0CDE9013100210591054995
:1003D0007944CDE9031011466846FFF713FF0FB0CB
:1003E00000BD0000E5FFFFFF0A6802F8010B0A608C
:1003F0007047D1E900239A4202D2531C0B6010705F
:10040000704710B5436913B1AFF3008001E0FFF707
:100410002DFF012010BD127800F124010A70002286
:100420004A700122EDE711684FF0FF32E9E710B59D
:10043000203AC0F00B80B1E81850203AA0E81850DC
:10044000B1E81850A0E81850BFF4F5AF5FEA027C9D
:1004500024BFB1E81850A0E8185044BF18C918C00C
:10046000BDE810405FEA827C24BF51F8043B40F8AD
:10047000043B08BF7047D20728BF31F8023B48BF92
:1004800011F8012B28BF20F8023B48BF00F8012BD0
:1004900070474FF0000200B5134694469646203947
:1004A00022BFA0E80C50A0E80C50B1F12001BFF42D
:1004B000F7AF090728BFA0E80C5048BF0CC05DF893
:1004C00004EB890028BF40F8042B08BF704748BFE1
:1004D00020F8022B11F0804F18BF00F8012B704755
:1004E000754600F02BF8AE4605006946534620F0ED
:1004F0000700854618B020B5FFF758FEBDE820403C
:100500004FF000064FF000074FF000084FF0000BCF
:1005100021F00701AC46ACE8C009ACE8C009ACE882
:10052000C009ACE8C0098D46704710B50446AFF36A
:1005300000802046BDE81040FFF724BE0048704709
:100540000802002001491820ABBEFEE72600020089
:1005500070470000044A116800BF034A1268521A2B
:100560008242FAD3704700000400002000B59BB01F
:100570004FF4FA60FFF7EEFF4FF4FA6232A133A0B6
:1005800000F0BEF810B900201BB000BD6420FFF7DA
:10059000E1FF4FF47A722CA12EA000F0B1F8642094
:1005A000FFF7D8FF4FF4FA6227A12CA000F0A8F8BB
:1005B00008B90020E8E76420FFF7CCFF2BA02EA3AA
:1005C00030A26421009002A8FFF702FE44F62062E8
:1005D0001DA102A800F094F840B940F6B8322FA14E
:1005E00030A000F08DF808B90020CDE74FF4FA7084
:1005F000FFF7B0FF4FF4FA6213A12DA000F080F8CE
:10060000C820FFF7A7FF4FF4FA620FA12CA000F05B
:1006100077F8C820FFF79EFF2DA02FA331A26421F9
:10062000009002A8FFF7D4FD42F2107206A102A8C2
:1006300000F066F808B90020A6E74FF4FA70FFF75B
:1006400089FF0120A0E700004F4B000041540D0A34
:1006500000000000415445300D0A000041542B4376
:10066000574D4F44453D310D0A00000031383033BD
:1006700032303035000000007475696B7963756342
:100680000000000041542B43574A41503D2225733E
:10069000222C222573220D0A0000000053544149E8
:1006A0005000000041542B43494653520D0A0000AC
:1006B00041542B434950434C4F53450D0A00000011
:1006C00041542B4349504D55583D300D0A00000010
:1006D00038303830000000003137322E32302E31C1
:1006E000302E370041542B43495053544152543D0E
:1006F00022544350222C222573222C25730D0A00EC
:100700002DE9F04106460F46144600201C4908809A
:100710004FF400711B48FFF729FE00F011FB304633
:1007200000F052FB1848D0F8008020E0322000F0A2
:1007300019FB0546002D19DB11480088B0F5FF7F35
:100740000CD80F4802880088401C0D4B18800D48BB
:10075000855400200B491A461288885439460948A6
:10076000FFF7ADFD10B10120BDE8F08100BF0648E4
:100770000068A0EB0800A042D8D30020F4E70000F6
:1007800000000020080000200400002000BF1049E5
:10079000C96801F001010029F9D10D49096941F049
:1007A00002010B4A116111464861096941F040019B
:1007B000116100BF0649C96801F001010029F9D1A2
:1007C0000349096921F00201014A116170470000E3
:1007D000002002400348006940F0800001490861A0
:1007E00070470000002002400548006900F08000CA
:1007F00020B104480249486003484860704700003F
:100800000020024023016745AB89EFCD00BF0D4AB0
:10081000D26802F00102002AF9D10A4A126942F0B4
:100820000102084B1A61018000BF064AD26802F03B
:100830000102002AF9D1034A126922F00102014B98
:100840001A617047002002401148006820F0F00053
:100850000F4908600846006840F0B000086008468C
:10086000006820F4706008600846006840F480600A
:100870000860081F0068074908400549091F08600B
:1008800008460068044908430149091F0860704789
:1008900004080140FFFF000F0000333070B50E4820
:1008A000046804F00050B0F1005F00D070BD72B673
:1008B00000204FF0E021086148618861064807493F
:1008C000086000BF84F3088800BF001D05682E463D
:1008D000B04700BFEAE700000028000808ED00E08C
:1008E0004FF43000014908607047000010080140D3
:1008F000B020014908607047100801402DE9F04F11
:10090000ADF2946D84A087A389A2802100900DF29E
:100910001460FFF75DFC4FF4FA628DA18DA0FFF724
:10092000EFFE6420FFF716FE00F00AFA8DA000F03B
:100930004BFA90480068CDF810060020CDF80C0660
:100940000BE0642000F00EFA8046B8F13E0F03D1B0
:100950000120CDF80C0609E000BF86480168DDF8EB
:100960001006081A40F6B8318842EAD300BFDDF815
:100970000C0620B900200DF2946DBDE8F08F0A201E
:10098000FFF7E8FD0DF2146000F01EFAFFF72CFFF0
:10099000DFF8E48112E04046FFF7F8FE4FF4006014
:1009A000A8EB0000C0F3812030B9FFF7A1FF1E20A3
:1009B000FFF7D0FDFFF794FF08F580686F4880458A
:1009C000E9D36D4E4FF00009002400250027694847
:1009D0000068029062E0642000F0C4F98246BAF137
:1009E000000F00DA5AE0634800680290B9F1000F86
:1009F00028D1B5F5FF7F07D82846691C8DB203A919
:100A000001F800A0002048555DA103A8FFF757FC9E
:100A10008046B8F1000F14D04FF0010908F104002E
:100A2000019003A90198401A281A1FFA80FBBBF114
:100A3000000F05DD5A4683A80199FFF752FC5C467A
:100A400000BF2AE02046611C8CB283A901F800A0F7
:100A5000B4F5806F21D34FF0000811E083A810F89F
:100A6000081083AA08F10100105C41EA002B5946E6
:100A70003046FFF7CBFEB61C08F102001FFA80F8E3
:100A8000B8F5806FEAD307F580670024FFF730FFE1
:100A90001420FFF75FFDFFF723FF00BF3548016813
:100AA0000298081A42F21071884294D3002C25DD76
:100AB000B9F1000F22D005E0FF222046611C8CB264
:100AC00083A90A54B4F5806FF6D34FF0000811E003
:100AD00083A810F8081083AA08F10100105C41EA0D
:100AE000002A51463046FFF791FEB61C08F102007D
:100AF0001FFA80F8B8F5806FEAD32744FFF76AFE43
:100B00004FF4FA6212A120A0FFF7FAFD0FB1012005
:100B100031E700202FE700003137322E32302E31FE
:100B2000302E37002F7570646174652E62696E0017
:100B300047455420257320485454502F312E300DF2
:100B40000A486F73743A2025730D0A0D0A000000DD
:100B50004F4B000041542B4349504D4F44453D31CC
:100B60000D0A000041542B43495053454E440D0A91
:100B70000000000004000020002800080000010818
:100B80000D0A0D0A0000000041542B434950434C0C
:100B90004F53450D0A00000010B500F001F810BDDC
:100BA0000CB50020019000903348006840F480307C
:100BB0003149086000BF3048006800F40030009000
:100BC0000198401C0190009818B90198B0F5A06FE9
:100BD000F1D12948006800F4003010B101200090E4
:100BE00001E0002000900098012843D123480068CC
:100BF00040F01000214908600846006820F0070016
:100C000008600846006840F0020008601A48406822
:100C1000194948600846406848600846406840F402
:100C2000806048600846406820F47C1048600846B0
:100C3000406840F4E81048600846006840F0807062
:100C4000086000BF0C48006800F000700028F9D070
:100C50000948406820F0030007494860084640689A
:100C600040F00200486000BF0348406800F00C00FC
:100C70000828F9D10CBD00000010024000200240FD
:100C800002480068401C01490860704704000020C9
:100C90001148006840F001000F49086000BF0E488D
:100CA000006800F002000028F9D000200A494860DE
:100CB0000A48006820F00700084908600648806973
:100CC00044F20D010843044988610846C06940F0B8
:100CD000C050C86170470000001002400020024070
:100CE00010B51348006840F001001149086008463B
:100CF0004068104908400E494860084600680E499F
:100D000008400B4908600846006820F4802008600D
:100D10000846406820F4FE0048604FF41F008860D9
:100D2000FFF73AFF4FF000600449086010BD000073
:100D3000001002400000FFF8FFFFF6FE08ED00E0A3
:100D400010B500BF0A2000F00DF80028FADA10BD37
:100D500045200349088042F20C00091D08807047B5
:100D60000838014001460F48026813E00E48008829
:100D700000F0080020B10C4800880B48001D0088D6
:100D80000948008800F0200020B10748001D0088B5
:100D9000C0B2704703480068801A8842E6D34FF01B
:100DA000FF30F6E7040000200038014000BF05498D
:100DB000098801F080010029F9D00249091D088045
:100DC000704700000038014010B5044603E014F8F5
:100DD000010BFFF7EBFF20780028F8D110BD0000D1
:100DE000FFF756FFFFF730FD4FF4FA51481EB0F100
:100DF000807F00D31BE0481E4FF0E0225061501767
:100E00000F22002804DB13071D0E4C4B1D5406E077
:100E100013071E0E4A4B00F00F052D1F5E5500BF35
:100E200000204FF0E02290610720106100BF45488C
:100E30000468454884426AD1002042490860002580
:100E40000AE0FFF755FD6420FFF784FBFFF748FD3C
:100E50006420FFF77FFB6D1C052DF2DBFFF778FFA9
:100E6000FFF784FB20B3FFF749FD88B100250CE0B4
:100E7000FFF73EFD4FF4FA70FFF76CFBFFF730FD14
:100E80004FF4FA70FFF766FB6D1C032DF0DB1EE0DC
:100E900000250AE0FFF72CFD3220FFF75BFBFFF790
:100EA0001FFD3220FFF756FB6D1C0A2DF2DB0EE012
:100EB00000250AE0FFF71CFD3220FFF74BFBFFF790
:100EC0000FFD3220FFF746FB6D1C142DF2DB00BF37
:100ED00000BF00BF00BF00BFBFF34F8F00BF00BF08
:100EE00000BF17480C38006800F4E0601749084359
:100EF000001D13490C39086000BF00BF00BFBFF3DD
:100F00004F8F00BF00BF00BF00BF00BFFDE710480C
:100F1000006820F480700E490860FFF7BFFC0BE00A
:100F2000FFF7E6FC4FF47A70FFF714FBFFF7D8FCED
:100F30004FF47A70FFF70EFBF2E7000000E400E0E8
:100F400018ED00E000400020EFBEADDE0000FA0525
:100F500000700040740F000800000020080000002E
:100F6000280100087C0F000808000020600800002D
:0C0F700044010008000000000000000028
:04000005080000ED02
:00000001FF
